:020000040800F2
:1000000040100020ED10000857280008C11000081B
:10001000C1100008C1100008C11000080000000055
:10002000000000000000000000000000D50D0008E6
:10003000C110000800000000810D0008A51A00088A
:10004000850E0008850E0008850E0008850E000844
:10005000850E0008850E0008850E0008850E000834
:10006000850E0008850E0008850E0008850E000824
:10007000850E0008850E0008850E0008850E000814
:10008000850E0008850E0008850E0008850E000804
:10009000850E0008850E0008850E0008850E0008F4
:1000A000850E0008850E0008850E0008850E0008E4
:1000B000850E0008850E0008850E0008850E0008D4
:1000C000850E0008850E0008850E0008850E0008C4
:1000D000850E0008850E0008850E0008850E0008B4
:1000E000850E0008850E0008850E0008850E0008A4
:1000F000850E0008850E0008850E0008850E000894
:10010000850E0008850E0008850E0008850E000883
:10011000850E0008850E0008850E0008850E000873
:10012000850E0008850E0008850E0008850E000863
:10013000850E0008850E0008850E0008850E000853
:10014000850E0008850E0008850E0008850E000843
:10015000850E0008850E0008850E0008850E000833
:10016000850E0008850E0008850E0008850E000823
:10017000850E0008850E0008850E0008850E000813
:0C018000850E0008850E0008850E0008A2
:10018C0053B94AB9002908BF00281CBF4FF0FF31F2
:10019C004FF0FF3000F00CB8ADF1080C6DE904CE57
:1001AC0000F008F8DDF804E0DDE9022304B0704744
:1001BC00704700BF2DE9F04786468C460846089EDE
:1001CC00154674461946002B40F0C2808542B2FA9F
:1001DC0082F245D94AB1C2F1200300FA02FC2EFA90
:1001EC0003F3954043EA0C0C94404FEA154EA8B229
:1001FC00BCFBFEF8230C0EFB18CC08FB00F943EA01
:10020C000C43994528D9EB1808F1FF3704D29945CE
:10021C0002D9A8F102072B44A3EB0903A4B2B3FB48
:10022C00FEFC0EFB1C330CFB00F044EA0344A04222
:10023C0014D92C190CF1FF3304D2A04202D9ACF121
:10024C0002032C44241A43EA07401EB1D440002375
:10025C0034607360BDE8F0874746DDE76346F1E73D
:10026C0092BB431B01214FEA154EAFB2B3FBFEFC10
:10027C00200C0EFB1C330CFB07F840EA034398459B
:10028C0062D9EB180CF1FF3004D2984502D9ACF1CD
:10029C0002002B44A3EB0803A4B2B3FBFEFC0EFB41
:1002AC001C330CFB07F744EA0344A7424ED92C1924
:1002BC000CF1FF3304D2A74202D9ACF102032C4457
:1002CC00E41B43EA0040C0E7C2F1200320FA03F12B
:1002DC00954090402EFA03F303434FEA154EAFB20C
:1002EC00B1FBFEFC0EFB1C10190C0CFB07F841EAD1
:1002FC000041884504FA02F422D969180CF1FF3048
:10030C0004D2884502D9ACF102002944A1EB0801C2
:10031C009BB2B1FBFEFC0EFB1C110CFB07F743EA76
:10032C0001439F420ED9EB180CF1FF3104D29F42CE
:10033C0002D9ACF102012B44DB1B41EA004192E7EC
:10034C006046E3E76146F7E76046A3E76346B7E735
:10035C00834206D916B9002108467BE7C6E900E0BE
:10036C00F9E7B3FA83F78FB9834201D3724508D802
:10037C00BEEB020460EB030301209C461EB9002176
:10038C0068E73846FAE7C6E9004CF8E7C7F1200CF5
:10039C00BB4022FA0CF41C432EFA0CF120FA0CF39D
:1003AC00B84001434FEA14490EFA07F5B3FBF9F8CC
:1003BC001FFA84FE09FB18300B0C08FB0EFA43EAFB
:1003CC0000439A4502FA07F240D9E31808F1FF30CE
:1003DC0004D29A4502D9A8F102002344A3EB0A03E4
:1003EC0089B2B3FBF9F809FB183308FB0EFE41EA9E
:1003FC0003418E452CD9611808F1FF3304D28E4588
:10040C0002D9A8F10203214443EA0040A0FB029860
:10041C00A1EB0E014145CE46434602D306D14D45D4
:10042C0004D2B9EB020E68EB04030138002EA6D0FF
:10043C00B5EB0E0261EB030101FA0CFC22FA07F397
:10044C004CEA0303F940C6E9003198E74046C5E79A
:10045C004346D9E737B5154802F0B9FC18B3144830
:10046C004FF4B01102F03FF900281CDB11484FF497
:10047C00803102F038F9002815DB0C4C2569A36893
:10048C000A485B6801A9984720B92B680198584025
:10049C00C0F300100028CCBF01220022032120460B
:1004AC0002F040F9EBE703B030BD00BF3430000878
:1004BC00643300085C330008014B1B68184700BF0D
:1004CC0000000020014B1860704700BF00000020A6
:1004DC0007B50B46002102460091034800F006F8D0
:1004EC0003B05DF804FB00BFC50400082DE9F04F14
:1004FC00814695B08B4617461C460025387808B9BE
:10050C00284658E37B1C2528039306D05946C84738
:10051C000028C0F250830135FBE1182200210EA8FF
:10052C0002F0B5F97B78252B7DD00023781C9846FA
:10053C009E469C461E46014610F8012B2B2A00F0C5
:10054C00A18000F29880202A00F09F80232A00F0DE
:10055C009F802BB19DF8403043F040038DF8403024
:10056C00B8F1000F05D09DF8403043F020038DF812
:10057C004030BEF1000F05D09DF8403043F0100321
:10058C008DF84030BCF1000F05D09DF8403043F0A1
:10059C0008038DF840302EB19DF8403043F0040331
:1005AC008DF840309DF8403003F04400442803D1CE
:1005BC006FF386138DF840309DF840302A2A43F0B3
:1005CC0080038DF840307FD19DF8412042F001022C
:1005DC004B1C8DF841201A782E2A9DF841200CBF17
:1005EC000121002161F341028DF8412078D15A7824
:1005FC002A2A6ED0013300224FF00A0C194611F84A
:10060C00010BA0F13006092E40F295809DF84010A8
:10061C001292C1F3400040EAD2700A4660F34102E4
:10062C008DF840205CE0BA1C03928DF843309DF8A5
:10063C004130DA0740F12E8154F8048BB8F1000FE9
:10064C0007DA9DF8402042F004028DF84020C8F1F2
:10065C0000085E0740F1278154F804ABBAF1000F93
:10066C0080F226819DF841306FF341038DF84130C3
:10067C004FF0FF3A1CE12D2A0DD0302A7FF469AFE0
:10068C00012358E74FF0010C55E74FF0010E52E7EC
:10069C004FF001084FE701264DE70EFB0262303A9E
:1006AC000346184610F8016BA6F1300CBCF1090F8B
:1006BC00F3D999428FD09DF840101192D20F62F36A
:1006CC0041018DF8401086E70B4600224FF00A0ED0
:1006DC00E7E79DF8412042F004028DF841200233F7
:1006EC001A786C2A47D02BD8682A31D06A2A4BD07A
:1006FC004C2A51D01A4612F8013B0392782B9DF8E4
:10070C0041208DF8433000F2BE806D2B51D8692BFF
:10071C0000F2B980572B67D8412B03D0453B022BF5
:10072C0000F2B1809DF84230042262F302038DF88E
:10073C004230012373E00CFB0202303A0B465DE7BA
:10074C00742A25D07A2AD5D19DF8412006210CE0B7
:10075C005A78682A9DF8412006D1012161F3C6021E
:10076C008DF841200233C5E7022161F3C6028DF8F2
:10077C0041200133BEE75A786C2A9DF8412001D103
:10078C000421EBE70321F0E79DF841200521ECE77C
:10079C009DF841200721E8E7BDF8402022F4F04203
:1007AC0022F0020242F4804242F00202ADF84020F4
:1007BC00DFE76E3BD9B201238B4040F282410B4202
:1007CC0037D113F0240F51D1D8075CD59DF84230A6
:1007DC00032161F302038DF8423002F07803A3F198
:1007EC0040014B424B411AE0A3F15801C9B2012020
:1007FC0000FA01F111F4624F94D140F60106314236
:10080C001DD111F4043F3ED09DF8423060F3020339
:10081C0002F07802402A8DF8423034D000239DF843
:10082C004020C2F340010B4363F341028DF840209A
:10083C00FDE69DF84230022161F30203E8E79DF8E2
:10084C004210022002F0780260F30201402A8DF877
:10085C00421002BF9DF8401041F001018DF840108C
:10086C00632BDBD1131E18BF0123D8E79DF8423050
:10087C00032161F3020312F0780F8DF8423014BF9C
:10088C0001230023CBE79DF8403043F001038DF8A2
:10089C004030C3E79DF94020002AB4BFDDF8448006
:1008AC004FF0FF38D5E698077FF5E2AEDDF848A0AB
:1008BC009DF841100023CDE911339DF8423003F02F
:1008CC000703012BC1F3C30133D1CB1E042B04D876
:1008DC00DFE803F0214646212100236801294FEA75
:1008EC00E372CDE90E321CD19DF93830DA17CDE91F
:1008FC000E3204349DF8403013F0030650D0039BA5
:10090C003A465946484601F07CFF0028C0F2538114
:10091C000544039FF2E554F8043BDA17CDE90E3297
:10092C00E8E70229E5D11AB243F3C033CDE90E232F
:10093C00DFE7022B24D1CB1E042B04D8DFE803F015
:10094C00181010181800012954F8043B4FF000023D
:10095C0014D00229CDE90E32CCD19BB20E93C9E74B
:10096C00073424F00704F4E80223CDE90E23C1E791
:10097C0054F8043B0E9300230F93BBE7DBB2CDE797
:10098C00042B08D1073424F00704D4E900230834DD
:10099C00CDE90E23AEE7032BACD154F8043BDDE7D5
:1009AC009DF843007828B4D862281CD825283FF439
:1009BC00ADAD5828ADD10DF136030093DDE90E0134
:1009CC0008AB10AA01F0D7FEBAF1000F074680F26F
:1009DC009A80002F9DD00DF13603D81B002E00F00D
:1009EC00C1800130BEE06338152892D801A252F8BC
:1009FC0020F000BFD50A0008E70A00081F0900080C
:100A0C001F0900081F0900081F090008E70A000851
:100A1C001F0900081F0900081F0900081F0900080A
:100A2C00750B00080D0B0008330B00081F0900089C
:100A3C001F090008590A00081F0900080D0B0008BF
:100A4C001F0900081F0900080D0B0008BAF1000F60
:100A5C000E9F35DB5146384601F005FF07EB000AC7
:100A6C00002F3FF456AF00269DF8423013F01002D1
:100A7C00059200F0938002305B06119A48BF129BDE
:100A8C000492104448BFC018B8F1000F40F3A08086
:100A9C009DF84020A8EB0008C2F380035007069392
:100AAC0000F19680510640F189803EB1594630469E
:100ABC00C84700287FDB069B01351E4630227EE0AE
:100ACC00384601F0C9FEC9E70E9B8DF82030002690
:100ADC0008AF0DF1210A0120C6E719075CBFC3F36B
:100AEC0000135E01DDE90E2348BF2B26002BBFF659
:100AFC0062AF524263EB4303CDE90E232D265AE736
:100B0C00002658E700269DF840200DF13603DB1B2C
:100B1C006FF386129A458DF840207FF65AAFAAEBF8
:100B2C000303119355E70E9890B30DF13603009320
:100B3C0010AA08AB002101F01EFEBDF8423003F0F4
:100B4C00EF0343F4F04343F01003BAF1000F0746F0
:100B5C00ADF84230D6DA00283FF4DBAE0DF13603A7
:100B6C00181A00269A467FE70E9B07293FF6D1AE4E
:100B7C00DFE801F00C04060C08080C0C1D70C8E62C
:100B8C001D80C6E6EA17C3E90052C2E61D60C0E646
:100B9C002E4F064607F1050A052065E71A0748BFE0
:100BAC00013069E70793104606925946C84700285A
:100BBC00DDE9062304DA15B0BDE8F08F20224346A8
:100BCC001946002903F1FF33ECDC45446D1A9846B5
:100BDC002EB159463046C8470028ECDB01359DF84C
:100BEC004230DA0601D41B0705D559463020C847D8
:100BFC000028E0DB0135059B33B19DF843005946D5
:100C0C00C8470028D7DB0135049E2E4405E0594621
:100C1C003020C8470028CEDB0135731B002BF6DCD7
:100C2C0053463A465946484601F0EBFD0028C2DBD4
:100C3C000544A844A8EB0503002B7FF76AAE594680
:100C4C002020C8470028B6DB0135F3E7DE34000866
:100C5C004FF01002EFF3118382F31288BFF36F8F02
:100C6C0083F31188BFF36F8F024B034A1A60002085
:100C7C00704700BF2C00002000093D0001491022E4
:100C8C000A60704710ED00E072B6404080F31188A6
:100C9C00BFF36F8FBFF34F8F30BF62B6BFF36F8F51
:100CAC00704700BF40B2002807DB044A410901230A
:100CBC0000F01F00834042F82130704700E100E053
:100CCC0040B20028A8BF00F1604001F10101B8BF9B
:100CDC00064B4FEA0111ACBF00F5614000F00F006C
:100CEC00C9B2B4BF195480F80013704714ED00E07A
:100CFC0030BFFFF7FDBF00BF0F4A08B50F4B22F006
:100D0C007F029A60BFF34F8FBFF36F8FD3F88820A9
:100D1C0022F47002C3F88820EFF3148323F0040349
:100D2C0083F31488BFF36F8F01F08CF801F08EFB06
:100D3C0000F0CAF901F0CAF80000000800ED00E06C
:100D4C00094A0A49936809689967094958674B68C1
:100D5C0043F080534B60002383F31188BFF36F8FF4
:100D6C009368986F704700BF3C020020D434000891
:100D7C0000ED00E012498A684FF030001044EFF3A8
:100D8C00098C80E8F01F102080F31288BFF36F8F5E
:100D9C000C4F4FF000668A698A603E60506F0023EA
:100DAC00536780F3118804B5104600F0D1F9BDE803
:100DBC00044002F1300090E8F01F8CF30988704772
:100DCC003C02002004ED00E01EF0040F0CBFEFF31A
:100DDC000880EFF30980816911F8021C0229FFD009
:100DEC0001B501F02AFD01BD42F8203C009B42F800
:100DFC001C3C0A49019B42F8183C029B42F8143CEB
:100E0C0021F001014FF0807342F8043C42F8081CB9
:100E1C000023203A02654367704700BF6F27000824
:100E2C00094A0346906870B113F1160F406E05D055
:100E3C00A0F140029A4205D8834203D2814228BFD6
:100E4C0000207047002070473C02002008B5094B79
:100E5C0098600D46144600F07BF9204685F309880E
:100E6C00002163B681F31188BFF36F8F002200233A
:100E7C0001F077FC3C02002001B5EFF30580A0F1F6
:100E8C0010004FEAC0000449014409C99847BDE865
:100E9C0001400249084700007C300008AD0E0008F4
:100EAC00044B99689869884203D003494FF08052EB
:100EBC000A6070473C02002004ED00E070B51D4B49
:100ECC0015469A6A9A6A9A6A9207064622D5586B10
:100EDC009A6A14061ED519B19A6A22F080029A6297
:100EEC009A6A9A6A9A6A134C12F0100F15D19B6A7F
:100EFC00990712D40020A36A0E4A9B0642BF636A6C
:100F0C0023F400536362936A43F0FF03936200235C
:100F1C002B7070BD6FF01500E2E763681A05E9D518
:100F2C003146FFF77DFF0028E4D080F309880220CA
:100F3C00E1E700BF00ED00E00D4B9A6A9A6A9A6AED
:100F4C00920508D59A6B9A6A120404D518B19A6A5C
:100F5C0022F400429A629A6A9A6AD205044A58BFED
:100F6C009B6A936A002043F47F4393620870704736
:100F7C0000ED00E070B54A4B5B688AB00546C3F3E0
:100F8C000803002686F31188BFF36F8F02F07F40B1
:100F9C00B0F17F4F11D102F00C0008280DD01007D2
:100FAC004CBF0D4601260022033B8DF80720032B76
:100FBC004DD8DFE803F00465696D3546F3E7384B2F
:100FCC00DA6A910743D4DA6A002A40DBDA6A520003
:100FDC003DD55A69A96942F480725A61BFF34F8FAB
:100FEC00BFF36F8F5A6931F8021C22F480725A6178
:100FFC00BFF34F8FBFF36F8F4DF60272914209D042
:10100C009A6AD2B242B10DF1070201212846FFF7CC
:10101C0055FF0AE02C681BE09A6A12F47F4F06D049
:10102C000DF107010120FFF787FF044610E09A6AD3
:10103C00B2F5803F0BD39A6A9A6A9A6A9A6A9A6A4C
:10104C009A6A9A6A6FEA02426FEA12429A62002422
:10105C009DF8073093B92022294602A801F00CFC18
:10106C00099BBEB1C3F3080222B96FEA53236FEA9E
:10107C004323099302A9204601F0DDFB0AB070BDA1
:10108C000DF107020021C1E70DF107010020CAE7AD
:10109C00034BD0E723F4FF7323F00103E9E700BF10
:1010AC0000ED00E0024A536943F0100353617047AE
:1010BC0000ED00E0EFF30880EFF3098101B5724613
:1010CC00FFF758FF01BD00BF044800231021C218D0
:1010DC000133532B82F80013F9D1704700E100E083
:1010EC00102080F3118808484FF40461401880F3F5
:1010FC000988EFF314800221084380F31488BFF3AE
:10110C006F8FFFF7F9FD000080020020084B9B68F1
:10111C0083420BD1EFF3058343B1064B5A6842F07F
:10112C0080525A605A6A22F400425A6201F02EB977
:10113C003C02002000ED00E0024B034A0348012171
:10114C0000F070B800000120000000206C33000893
:10115C00426E054B403A1A60044A4021C3E9011221
:10116C001846012100F068B86001002000000B1542
:10117C00F0B5204E00258D4239DA446874B353B172
:10118C0004F1FF3C14EA0C0F2FD11F2C2DD907684A
:10119C001CEA070F29D1202C0768D0F808C05FFA89
:1011AC0082FE1ED9B4F1004F1DD8013CB4FA84F470
:1011BC00C4F11F046400BEF1070F4CEA040C14D8F0
:1011CC0027F01F04144344F01004C6F89820C6F806
:1011DC009C404CF00104C6F8A040013201350C30A3
:1011EC00C9E70824E7E73E24E5E76FF0150210464F
:1011FC00F0BD00BF00ED00E0044B0522C3F89420C5
:10120C00BFF34F8FBFF36F8F704700BF00ED00E04F
:10121C00BFF35F8F024B0022C3F89420704700BFCE
:10122C0000ED00E010B5034C01232278FFF7A0FF7E
:10123C00207010BD7002002008B5094A00231278F6
:10124C00FFF796FF10F1160F02D0064A072800DDB3
:10125C0008BDC2F89800C2F8A0300130F6E700BF14
:10126C007002002000ED00E014490868082810B551
:10127C0021D8FFF7CDFF124C49680022904201F1B2
:10128C000C0105D10F4B1870FFF7B6FF002010BDF5
:10129C00C4F8982051F80C3C23F01F03134343F07F
:1012AC001003C4F89C3051F8043C43F00103C4F81B
:1012BC00A0300132E2E74FF0FF30E8E77833000866
:1012CC0000ED00E070020020014B1860704700BF79
:1012DC00040000202DE9F8430D4F04460E46154638
:1012EC004FF0010802F10409B44201DBBDE8F883B8
:1012FC007A6908FA04F333EA020207D17B6155F8E4
:10130C0034301BB159F83410204698470134EBE7C0
:10131C0000040140044A0123116883400B4313600D
:10132C00024B1856FFF7BEBC0004014011350008F3
:10133C001F2806DC034901220B68824023EA0203C2
:10134C000B6070470004014003292AD8DFE801F044
:10135C00020E141F134B01229968824021EA0201EC
:10136C009960D96821EA0202DA6070470D4B0122BC
:10137C00996882401143F3E70A4B0122D9688240F5
:10138C001143D960996821EA02029A6070470123DF
:10139C0003FA00F0034B9A6802439A60DA68104330
:1013AC00D86070470004014010B5074B044653F851
:1013BC00300028B943F8341003EBC4035A6010BD55
:1013CC006FF00F00FBE700BF6C010020034B002205
:1013DC0043F8302003EBC0035A6070476C010020C7
:1013EC00024B1868C0F38020704700BF0010024009
:1013FC0010B51E4B18680B68072B144615D00A2B1A
:10140C000AD893B1013B092B0FD8DFE803F02D0E5E
:10141C0015150E160E192127582B0ED008D84C2B4B
:10142C000BD0502B09D0482B07D06FF0850006E06D
:10143C005C2B02D0602BF7E700202060002010BD51
:10144C0000F0A2F8142358430723B0FBF3F0F4E7A1
:10145C0000F09AF8142358434008EEE700F094F893
:10146C00142358438008E8E70148E6E72C000020E5
:10147C000024F40070B53F4C3F4E00F09BF800F098
:10148C0003FCA3683D4AC3F30313D35C20FA03F5B2
:10149C00B54202D83A4800F045FCFFF7A1FF0128FD
:1014AC0007D0236843F480732360FFF799FF01286A
:1014BC00FBD1A36803F00C030C2B1AD1A36823F007
:1014CC00F003A360FFF78CFF012807D0236843F4D7
:1014DC0080732360FFF784FF0128FBD1A36823F0FE
:1014EC00030343F00103A360A36803F00C03042B74
:1014FC00FAD1236823F080732360E36823F06053F0
:10150C0023F4003343F06053E360E36843F4803327
:10151C00E360E36823F4C003E360E36843F48013FF
:10152C00E36000F035F8236843F080732360236890
:10153C009B01FCD5A36823F0F003A360A36843F0E0
:10154C000303A360A36803F00C030C2BFAD1B54280
:10155C0002D90B4800F0E6FB0A4B094A1A60A36853
:10156C0023F4E063A360A36823F46053A36000201A
:10157C0070BD00BF00100240FFB3C40476350008F4
:10158C0000B4C4042C000020004870470024F40070
:10159C00054B0649DA681140054A0A43DA60DA68F5
:1015AC0042F08072DA607047001002408C80FFF9C4
:1015BC0002140002064B9A6D42F080529A659B6DA4
:1015CC0082B003F080530193019B02B0704700BFBF
:1015DC000010024008B5074801F0F9FB38B1064885
:1015EC00FFF772FE0448FEF76DFF002008BD6FF098
:1015FC001200FBE764300008091600080A2838B509
:10160C00074D044604D1AB680D215B68284698470A
:10161C00AB6803485B68E1B29847204638BD00BF11
:10162C006430000838B5036904465860084D2846F4
:10163C0001F0CDFB40B16168AB680C311B682846EA
:10164C00984700EAE07038BD6FF01200FBE700BF6E
:10165C00D42F0008F7B51746B7F5001F4668026986
:10166C000C461D4624D101F00302043292000F23D4
:10167C00934043EA9103DAB23349023251F8222003
:10168C00190C02EA134391FAA1F2B2FA82F2D34096
:10169C00B2689A4209D12046FFF74AFE2046FFF76E
:1016AC0095FE00212046FFF74FFE002003B0F0BD51
:1016BC00B7F5800F41D025492046FFF775FE00286D
:1016CC003ED1234AB66892E803006B4683E80300D8
:1016DC0020488268194612689047C0B904F0030389
:1016EC0004339B000F229A4042EA9402D3B29B002F
:1016FC0003F1804303F58033110C986820EA124003
:10170C0091FAA1F2B2FA82F2964006439E60B5F1CC
:10171C00806F0ED0B5F1C06F0DD005F17E435942EC
:10172C00594149002046FFF70FFE2046FFF7F2FD16
:10173C00BBE70121F6E70321F4E76FF08500B5E77D
:10174C006FF00F00B2E700BF00000140CB2B000888
:10175C0054330008D42F0008F7B5076944680646CF
:10176C004148786001F033FB002879D078686168D3
:10177C0083681B6898470546002869D1014601AA71
:10178C00A06901F00DFB002801DA054660E0019B21
:10179C002A461979186800F031FA0028F5DB22681E
:1017AC00136823F001031360216851E8003F43F0F4
:1017BC000C0341E80032002AF7D12369022B4AD0EE
:1017CC00012B12BF00204FF480504FF4C0622168EF
:1017DC000B6823F0805323F4B053104303430B6086
:1017EC004B6823F440534B60237B2BB173681A680E
:1017FC00936843F4407393603968304601F00BFAF8
:10180C00237D23B12268936843F008039360637DC2
:10181C0023B12268536843F400435360A37D23B182
:10182C002268536843F480335360E37D23B122680C
:10183C00536843F4003353602268136843F0010388
:10184C0013602368DA699102FCD5DA695202FCD57F
:10185C00284603B0F0BD4FF480504FF48062B6E7D9
:10186C006FF01205F4E700BFD42F00082DE9F0410A
:10187C000B7945680669012B0C4600F085809A1E91
:10188C0051425141890294F805C094F80680BCF18C
:10189C00020F96BF624A4FF4005732F81C70E2797F
:1018AC00B8F1020F73D0B8F1040F00F09980002B3F
:1018BC007AD1012A2CF0020C40F0A380BCF1000F6D
:1018CC0000F08E80B8F1010F40F28A804FF4407E18
:1018DC00D5F800C06AB1DFF84C81C44507D0A8F533
:1018EC007448C44503D008F57058C44578D1012A12
:1018FC0076D1DCF8002022F00102CCF800204268FE
:10190C00D2F800C0DCF8002002F4C06291421FBF84
:10191C00DCF8002022F4C0620A43CCF800204268B4
:10192C0011684A6802F4405297421FBF4A6822F479
:10193C0040523A434A60426811680A6802F0102229
:10194C009A421FBF0A6822F0102213430B604368AF
:10195C001A68936803F440739E451FBF936823F481
:10196C00407343EA0E03936021683368994203D0B5
:10197C0001F051F9236833602A68136843F00103BE
:10198C0013600020BDE8F0814FF4C0617BE70BBB16
:10199C00012A2CF0020C2FD1BCF1000F20D04FF4F7
:1019AC00407E4FF0805393E7033B012ADBB20CD10E
:1019BC00012B15D94FF4407E1CF0FD0F10D0B8F15F
:1019CC00010F0DD94FF4805382E7012B08D94FF04A
:1019DC00000EF1E7033B012ADBB204D0012B19D82E
:1019EC006FF08500CEE7012BFAD91CF0FD0FF7D074
:1019FC004FF4407E00236BE7BCF1000FF0D09E4605
:101A0C00CFE7BCF1000FEBD0B8F1010FE8D99E463F
:101A1C0073465DE71CF0FD0FE2D04FF0000EF7E7C8
:101A2C00D83400080038014010B54FF0E0239A6913
:101A3C0019699869094B11F4803F094901D1824217
:101A4C0006D21A680C6822441A604FF0E022126920
:101A5C001B680A681344181A10BD00BF2C02002022
:101A6C0038020020094B102283F82320084B41F642
:101A7C003F721A60074B002018604FF0E0235A6148
:101A8C0098611A6942F007021A61704700ED00E094
:101A9C00380200202C02002008B5FFF7C5FF0C4BC4
:101AAC000C4A186811680844106000221A600A4A2F
:101ABC0013684FF4FA51C01AB0FBF1F001FB00337C
:101ACC00136000F0A9FDBDE80840FFF7E9B900BFBD
:101ADC002C02002034020020300200202DE9F041BD
:101AEC00324E002953D0421C0AD14FF0E022136928
:101AFC0023F0010313614FF07F433360BDE8F081A5
:101B0C003468012849DDB0F5036F49DC00F1FF387A
:101B1C004FF01003EFF3118583F31288BFF36F8F2F
:101B2C00FFF782FF4FF0E02321499F690B681844AF
:101B3C00204B00221A60204B1B68C21A33D44FF47E
:101B4C00FA5C0CFB082202F5F9521B1A1F32B2FB8D
:101B5C00FCF20CFB0233B3F5806F24D9174A934285
:101B6C0028BF13464FF0E02233609669B742A7EBCB
:101B7C00060703F1FF3338BF3F1953613844002384
:101B8C009361086085F31188BFF36F8FB6E7431C30
:101B9C003468B6D14FF40360B8E74FF00008B7E7EC
:101BAC004FF40368B4E74FF48063DBE7380200209E
:101BBC00340200202C0200203002002000DCFF0048
:101BCC0010B54FF01003EFF3118483F31288BFF3B9
:101BDC006F8FFFF729FF074B074A1B6812689B1A88
:101BEC00034484F31188BFF36F8F4FF4FA50B3FBA7
:101BFC00F0F010BD34020020300200202DE9F04737
:101C0C00204F044600EBC1060025B44201D1002050
:101C1C0014E02268D10602F01F0911D4656845F062
:101C2C002005C2F3471AC2F343220A2A27D857F8D1
:101C3C002280B8F1000F11D16FF01200BDE8F087CF
:101C4C00B9F1100F08D0B9F1110FEAD165682B0565
:101C5C00E7D545F01005E4E73025E2E7404601F012
:101C6C00B6F80028E8D04B462A460AF00F01404649
:101C7C0000F0BCFF002804F10804C6DADEE76FF0C0
:101C8C001500DBE764340008224B9A68D96812F01F
:101C9C000C0205D00C2A15D101F00301012918D131
:101CAC0019681D48090755BFD3F894101968C1F37A
:101CBC000321C1F3031150F8210012B10C2A09D0F1
:101CCC0000207047042A22D0082A144818BF00208C
:101CDC0070470020DA6802F00302022A15D00F497F
:101CEC00032A08BF0846D968DA68C2F306224243C1
:101CFC00D868C0F34160C1F30211013001314000DA
:101D0C00B2FBF1F2B2FBF0F070470548EBE7044888
:101D1C00704700BF001002409034000800127A0097
:101D2C000024F4001F4B421E9A4201D90120704737
:101D3C001D4B1B6803F4C063B3F5007F0FD11B4B25
:101D4C0098421AD81A4B984227D81A4B984226D840
:101D5C00194B984294BF00230123002011E0174B2C
:101D6C0098420CD8A3F5F403A3F59053984214D8D9
:101D7C00134B984213D8134BEBE70423EDE70023E6
:101D8C00012011490A6822F007021A430A600A6806
:101D9C0002F007029342C9D170470323DDE7022307
:101DAC00DBE700BFFFB3C404007000400090D00319
:101DBC00006CDC020048E8010024F40080BA8C01BD
:101DCC00001BB700808D5B00002002400F4B70B5EC
:101DDC0053F82040013053F82060A64200D870BD63
:101DEC00D4E90035284698476DB138B10028B8BF02
:101DFC004042EB68FF28A8BFFF201870EA685378B0
:101E0C0043F0010353700834E7E700BFC034000807
:101E1C0008B50A4B012202201A70FFF7D7FF00F019
:101E2C0055FC0320FFF7D2FF00F0EAF8FEF712FB97
:101E3C00034A137B23F00103137308BD71020020C6
:101E4C00D800002008B50348034A0021121A00F0FC
:101E5C00EFFF08BD580000207402002070B500236D
:101E6C0086B00122CDE90423134E144D01930F22A9
:101E7C00CDE902321249182303FB005506EBC016BC
:101E8C0004464FF4C07000FB04110E4B00954FF448
:101E9C00A072304600F082F8737B0B4AEE6023F0A0
:101EAC00040373734FF4046304FB033313442C7562
:101EBC006B6006B070BD00BF580000203C020020D3
:101ECC00C00A0020452E00088002002080B52C4B53
:101EDC00A6B083F308882B4D2B4E6B692B4F43F424
:101EEC00007300246B61F02385F82230EC772C769C
:101EFC006C76AC7685F820406B6A43F4E0236B6219
:101F0C00FFF7D0F8FEF7BAFE4FF0FF33AB62EB628F
:101F1C00FFF7AAF9FFF710F940F20113ADF82430DE
:101F2C0006ABB360CDE91F44229400F04FFF20466E
:101F3C00FFF74CFF0120164DFFF748FF00F014FA95
:101F4C00144BB5610593012313490094CDE9034368
:101F5C004FF480623B46CDE90144284600F01EF860
:101F6C006A7B064622F0040228466A7300F0A4FF3E
:101F7C002046FFF773FF3A4631462846FEF766FFC8
:101F8C00C00A002000ED00E03C0200201D1E0008ED
:101F9C00D800002086350008400C00202DE9FF41B8
:101FAC000E9E0673042646730D9E867300F158052B
:101FBC000F46D61DC0E916550C9A002526F00706CB
:101FCC004037C0E90655C0E919768560C573C5660A
:101FDC0006F1400802920B9A019288440A9A0092E8
:101FEC0042460446FEF700FF044B65659B6803B14F
:101FFC001B6F2367404604B0BDE8F0813C02002013
:10200C00F0B5224C224D87B02646AE4204F1300486
:10201C000BD300F079F91D4C1E4F0A26AC4220D38D
:10202C0007B0BDE8F04000F083B954F8043C0593C8
:10203C0054F8103C049354F8143C039354F8183C93
:10204C00029354F81C3C019354F8203C009354E93F
:10205C000A2354E90C01FFF7A1FF54F8303C5E65EC
:10206C00D2E7626A531C09D022EAE27282FB062391
:10207C0052EA0301206803D100F028F93034CDE78F
:10208C003946183000F04AFAF8E700BF5400002037
:10209C0054000020812E000838B5074D2C6854B12F
:1020AC00FFF78EFD054B04441C6128680021BDE838
:1020BC00384000F03DBF38BD680200203C020020D3
:1020CC0038B50D4D2B4653F81C4F9C4200D004B92B
:1020DC00EC68AB6838B95A7BD20604D1A26912B944
:1020EC00DA897F2A05D89C4202D02046FFF7D4FF1C
:1020FC002346AB6138BD00BF3C02002070B590F99F
:10210C000D20437B002A014604DA03F07F0343735E
:10211C0000F09EFE4B7B154A63F07F0310464B7319
:10212C0050F81C3F146A834208BF002323B9C1E94D
:10213C000004216011620CE091F90E5093F90E60CD
:10214C00B5420ED0AE420CDD5868C1E900300160DA
:10215C0059609068431A5842BDE870405841FFF7E7
:10216C00AFBF9C42E3D01B68E0E700BF3C020020FD
:10217C0070B490F90D30427B002B29DBD30627D1AC
:10218C0083692BBB134962F07F0242730A4652F8F3
:10219C001C4F944218BF23460C6A23B9C0E9002493
:1021AC00206008620CE090F90E5093F90E60B54275
:1021BC000AD0AE4208DD5A68C0E90032106058609F
:1021CC0070BC0020FFF77CBFA342E7D01B68E4E79C
:1021DC0070BC70473C02002010B54FF01003EFF3B9
:1021EC00118483F31288BFF36F8F0A23002800FB3E
:1021FC0003F302DD022BB8BF0223074A0020106153
:10220C0006480360064B90681960FFF745FF84F39E
:10221C001188BFF36F8F10BD3C02002068020020B4
:10222C006402002038B54FF01003EFF3118583F3EF
:10223C001288BFF36F8F174B174A9C6811688C423A
:10224C0007D12046FFF728FF85F31188BFF36F8F66
:10225C0038BD00211160114A1268C2B1E2897F2A8F
:10226C0015D8627BD20612D10D4A94F90E10126861
:10227C0091420CDB0B4A944209D01A69824203DC6E
:10228C002046FFF73BFFDCE7121A1A61DCE700225D
:10229C00FBE700BF3C020020600200206802002027
:1022AC00640200205800002049B9EFF3058030B9D2
:1022BC00054B9A699B689A4201D0FEF741BD81F3A8
:1022CC001188BFF36F8F70473C02002010B54FF0A0
:1022DC001002EFF3118482F31288BFF36F8F427BED
:1022EC00510704D484F31188BFF36F8F10BD22F013
:1022FC0004024273FFF73CFF21460248BDE8104040
:10230C00FFF7D2BF720200204FF01003EFF31181E0
:10231C0083F31288BFF36F8F044B9A68D37B013B16
:10232C00D37381F31188BFF36F8F70473C02002089
:10233C0010B54FF01003EFF3118483F31288BFF341
:10234C006F8F084B9A68D37B0133D3730020FFF750
:10235C00B7FE84F31188BFF36F8FBDE8104000F017
:10236C00C7BD00BF3C020020044B002103F11C023E
:10237C00C3E907220846FFF72FBF00BF3C0200202D
:10238C00014B9868704700BF3C0200202DE9F041DA
:10239C0004464FF01003EFF3118683F31288BFF35A
:1023AC006F8F037BD9070BD586F31188BFF36F8F23
:1023BC00404080F311884FF0040002DFBDE8F0814B
:1023CC00437B1A0704D586F31188BFF36F8FF5E7AB
:1023DC0023F0200242F00801D20920D14173A368F6
:1023EC0013B1204600F03CFD04F1180000F08AFD0A
:1023FC0004F158074FF00008A56DBD4200D0B5B9E7
:10240C000120FFF75DFE104B9B68A342DBD1EFF37D
:10241C000583002BD7D13046FEF792FCD3E703F0AF
:10242C005F0343F00803437300F012FDD7E728461F
:10243C0000F016FD05F1180000F064FDC5F8788079
:10244C002846FFF795FED7E73C02002008B5064862
:10245C00064A0749121A00F0EDFCBDE80840054A8F
:10246C000549064800F0E6BC00000020540000209E
:10247C00D435000800000000D4350008000000200E
:10248C00034B1B680BB9FFF79BBB0020704700BFC9
:10249C006C02002010B5114B1C689C420AD1FFF74E
:1024AC00EFFF6FF000400E4B1B6913B19842A8BFB1
:1024BC00184610BDFFF7E4FF002CF2D0D4E904322B
:1024CC001B1A62EBE072B3F1004F72F10001E8DA13
:1024DC00002AACBF18460020E5E700BF3000002002
:1024EC003C02002030B570B10B4B5B6898420AD0AF
:1024FC00036843B1D3E90421D0E90445121941EB37
:10250C000501C3E90421D0E9003213605A600023AD
:10251C00C0E9003330BD00BF30000020B3F1FF3FF5
:10252C0008BFB2F1FF3FF8B504461D46164661D010
:10253C0081604FF01003EFF3118783F31288BFF320
:10254C006F8F013275F1FF3324DA3049D1E9002065
:10255C006FF001039B1A4FF0FF3262EB00009E1BE1
:10256C0060EB0500012E70F1000301DA012600205A
:10257C00C4E90460264ED6F800C07568B44508BF9F
:10258C004FF0000CBCF1000F0DD1C4E900652C60BC
:10259C0074601CE0FFF774FF013645F10005361836
:1025AC0045EBE070E4E7DCE90420D4E90431934224
:1025BC0071EB000E1FDAD21ADCF8043060EB01006C
:1025CC00CCE90420C4E900C31C60CCF80440336897
:1025DC00B3420BD09C4209D1FFF75CFF18B10D4BF5
:1025EC001B69834202D00021FFF778FA87F3118828
:1025FC00BFF36F8FF8BD9B1A61EB0001AC45C4E9CA
:10260C000431C2D0DCF800C0BCE700BF5801002088
:10261C00300000203C0200202DE9F8430446FFF76F
:10262C0001FE4FF01003EFF3118683F31288BFF312
:10263C006F8F234FDFF88C80D8F80000224A3C6063
:10264C004045D2E9003E4FEAE4710BD050B1D0E9DD
:10265C00045CAC4271EB0C0916DA2D1B6CEB010C13
:10266C00C0E9045CE3184EEB01010024C2E900311F
:10267C003C60FFF70FFF2146FFF730FA86F3118815
:10268C00BFF36F8FBDE8F883EB184EEBE571C2E931
:10269C00003100220023C0E90423FFF723FF86F357
:1026AC001188BFF36F8F836898474FF01003EFF3D7
:1026BC00118683F31288BFF36F8F3C68641BBBE7F2
:1026CC006C0200203000002058010020024A03490F
:1026DC00034800F039B800BFD23500088B3500082C
:1026EC00AC3500087047F0B403460A461979DB880C
:1026FC0000681343DC028768066906D513F4402F83
:10270C0003D0DA0748BF83F44023346801258D4099
:10271C0023F48012DB074CBF2C43AC4334603B6882
:10272C00F0BC1847012303FA01F103691B68194235
:10273C0018BF82F0010212B18368DB681847836806
:10274C001B69FBE7002070470FB407B504A951F8CB
:10275C00040B0191FDF7BCFE03B05DF804EB04B073
:10276C007047044608B5084611461A46A047FFF7BD
:10277C0007FEFEF7CBFC2DE9F84F9A46D3786F2B6A
:10278C0080460F461546A3F1410B29D024D8582B6F
:10279C000CBF10260A26DDF828903246002340464E
:1027AC003946FDF7EDFC092AD4B21ED83034B045B9
:1027BC00E4B277F1000709F8014D01D3D14511D8E6
:1027CC002B789B0605D5082E15D1AB7843F0080362
:1027DC00AB704846BDE8F88F03F0F703702BD7E7D2
:1027EC000826D8E780460F46D7E7BBF1190F94BFF0
:1027FC0037345734DBE7102EEBD1AB7843F01003B2
:10280C00E6E72DE9F0410746884615461E46144674
:10281C00B44205D30EB1601B08E02378002BFAD02C
:10282C0014F8010B4146B8470028F1DABDE8F081F5
:10283C0070470020704700F0E0BA0146006800F0D5
:10284C00DCBA00210120FFF7F6BF08B5FEF750FAFD
:10285C00BDE80840FEF724BB034600201A5C02B911
:10286C0070470130FAE7034600201A5C0AB188422F
:10287C0000D170470130F8E710B5431E0A4491426D
:10288C0000D110BD11F8014B03F8014FF7E7C9B2A5
:10289C0002440346934200D1704703F8011BF9E749
:1028AC004FF0FF307047002208B511460620FEF7A6
:1028BC0007FA002211460720FEF702FA0022114601
:1028CC000820FEF7FDF9002211460920FEF7F8F961
:1028DC00002211460A20FEF7F3F9002211461720B8
:1028EC00FEF7EEF9002211462820FEF7E9F9002048
:1028FC0008BD026910210A20FEF7ECBC02690A210E
:10290C000520FEF7E7BC026905210420FEF7E2BCB6
:10291C00026904210320FEF7DDBC026903210220B9
:10292C00FEF7D8BC026902210120FEF7D3BC026974
:10293C0001210020FEF7CEBC0B68A3F14802182A37
:10294C009FBF03F1804303F5043349681A689DBFA8
:10295C000A4300201A606FF0850070470B68A3F1E2
:10296C004802182A9FBF03F1804303F504334968DA
:10297C001A689DBF8A4300201A606FF0850070476B
:10298C000B68012B02D0063B042B0FD84968CBB245
:10299C0003F1804303F50433C1F302421868C1F319
:1029AC0004218A4002431A60002070476FF08500B2
:1029BC00704743685B681B690B6000207047436875
:1029CC005B68586942400A4042405A610020704797
:1029DC0043685B6800209961704743685B6800201E
:1029EC009962704743685A6853694B4053610020A1
:1029FC00704710B50369986848B1884213D1DC68F8
:102A0C0008689860A14200D1D860002008607AB9AB
:102A1C00002010BD814206D108682060D868814230
:102A2C00F3D1DC60F1E7044600680028F2D13AB13A
:102A3C009A680A60DA689960002AE9D1D960E7E7F8
:102A4C006FF01500E5E7F0B5446801206768884031
:102A5C001E46C2F3801327EA00078B403B4363609A
:102A6C0090FAA0F7B7FA87F7D4F808C04FF0030E26
:102A7C007F000EFA07F72CEA070C90FAA0F7B7FACA
:102A8C0087F7C2F3C1137F00BB4043EA0C03A3607A
:102A9C0090FAA0F3B3FA83F3E7685B000EFA03F342
:102AAC0027EA030790FAA0F3B3FA83F302F0300598
:102ABC005B00C2F341229A403A43202DE26016D1CA
:102ACC0007292BDC90FAA0F3226A2BB3B3FA83F319
:102ADC009B000F2101FA03F322EA030290FAA0F300
:102AEC00B3FA83F39B0006FA03F31343236290FAC1
:102AFC00A0F3B3FA83F3226890FAA0F05B000321F1
:102B0C00B0FA80F02D0901FA03F3400022EA030326
:102B1C0085401D432560F0BD2B46D9E7030A616A49
:102B2C0093FAA3F282B1B2FA82F292000F2793FACF
:102B3C00A3F3B3FA83F307FA02F29B0021EA020231
:102B4C009E4016436662D2E72A46EEE713469A0386
:102B5C0010B518D59C070FD55A072DD55022DC0679
:102B6C000CD542F4007213F4002F446818D064683A
:102B7C0001238B40A3610DE01022F0E79C06F2D5F7
:102B8C0042F48062EFE7DC0311D5DA0611D4C3F30B
:102B9C0040139A0240680023FFF755FF002010BD38
:102BAC005B03F7D5646801238B40A362F2E7302204
:102BBC00F0E74FF40072EDE76FF08500EFE770B5CA
:102BCC000B46896821B101255E680C68854001B906
:102BDC0070BD8A682A4002D04B68304698471CB1B9
:102BEC00236821461C46F2E72346FAE7F8B51F4650
:102BFC00044640680E461546FFF725FF112F08D1F5
:102C0C00012303FA06F663685B682A054CBF9E61D4
:102C1C009E620020F8BD37B5036945685868836823
:102C2C00DB680C46696883B101AA984700280CDB65
:102C3C002A68136823F400431360019B2A6803EB92
:102C4C005403B3FBF4F39BB2D36003B030BD4368C1
:102C5C001A68D069D169C907D169C0F3C00048BFEF
:102C6C0040F002008907D16948BF40F00400C90553
:102C7C0042BF4FF4807140F008001162C20742BF9E
:102C8C001A6808211162810742BF1A68012111627A
:102C9C00420742BF1A68022111621B6804221A62A1
:102CAC00704710B540680268D3691B06FCD54FF01D
:102CBC001002EFF3118382F31288BFF36F8F026857
:102CCC00D469240604D483F31188BFF36F8FEAE729
:102CDC00118583F31188BFF36F8F10BD43681A6899
:102CEC00D069000744BF082010621B68DA6992069D
:102CFC0043BF9B8C0B7000204FF0FF307047036973
:102D0C001B680B6043681B681B6803F4C063B3F556
:102D1C00806F35D0A3F5C06CDCF1000343EB0C03E2
:102D2C000B7143681B685B6803F44053B3F5805F19
:102D3C0028D0B3F5405F27D0002B0CBF0123032311
:102D4C004B7143681B681A681B6802F01022B2F5BD
:102D5C00805F03F4C06319D0B2F1805F1BD1002BEC
:102D6C0014BF012302238B7143681B689B6803F417
:102D7C004073A3F5407253425341CB71002070470E
:102D8C000223CDE70023DBE70223D9E7002B14BF96
:102D9C0003230423E7E7002B14BF02230323E2E7FA
:102DAC0070B503686FF060461360057904683544AC
:102DBC0004EBC504A34202D96FF0010070BD5C792D
:102DCC008C4201D00833EFE70020F7E7704738B1A9
:102DDC00C3681888C0F30800A0F5807358425841A6
:102DEC0070474FF01002EFF3118382F31288BFF398
:102DFC006F8FFEE708B5FFF7F4FFF8B505460E46F2
:102E0C004FF01003EFF3118783F31288BFF36F8F2A
:102E1C00FFF7B6FA314604462846FFF7EBFF87F377
:102E2C001188BFF36F8F2046BDE8F840FEF76EB9EE
:102E3C00FFF72DBDFFF720BD08B54FF01002EFF3E3
:102E4C00118382F31288BFF36F8FFDF71DFFF4E738
:102E5C00D0E9003213605A600023C0E90033704798
:102E6C0008B5FFF7F5FF437B23F002034373002300
:102E7C00836008BD10B501464FF01003EFF31184C9
:102E8C0083F31288BFF36F8F10F80B3C13F0280FED
:102E9C000DD151F8103C18380BB1FFF7E1FF11F8C8
:102EAC000B3C23F0140301F80B3CFFF761F984F39E
:102EBC001188BFF36F8F10BD10B54FF01003EFF3F7
:102ECC00118483F31288BFF36F8FFFF751F984F3EA
:102EDC001188BFF36F8F10BD034620B9EFF3058245
:102EEC000AB9FDF72DBF83F31188BFF36F8F7047BD
:102EFC004FF01003EFF3118083F31288BFF36F8F41
:102F0C00FFF7EABF10B54FF01002EFF3118482F314
:102F1C001288BFF36F8F03683BB1FFF7E3FA002011
:102F2C0084F31188BFF36F8F10BD6FF01500F7E7B6
:102F3C0070B504460D464FF01003EFF3118683F382
:102F4C001288BFF36F8FFFF7A5FA012807DDA042A7
:102F5C0005DBA0422946A8BF2046FEF7BFFD86F33D
:082F6C001188BFF36F8F70BDE7
:082F74004CD2FF7F01000000B8
:102F7C005D0C0008000000003F2800080000000065
:102F8C0081140008D42F0008B3280008EC2F000887
:102F9C003116000804300008311600081C300008F7
:102FAC003116000834300008311600084C30000887
:102FBC006517000864300008E115000800000000E7
:082FCC00711A0008000000006A
:102FD4002135000800000000080000203C0000200B
:102FE4000000000042330008F33400080000000031
:102FF40000000000380000206C0100203C33000871
:103004002E35000898330008E833000840000020FB
:10301400EC010020343300083C350008AC330008D0
:10302400E833000844000020FC0100202C33000891
:103034004A350008C0330008E8330008480000207F
:103044000C0200202433000858350008D43300084B
:10305400E83300084C0000201C0200201C33000848
:10306400663500080C340008503400085000002075
:083074002400002014330008C1
:10307C00000000004F280008000000004F28000846
:10308C00000000004F280008000000004F28000836
:10309C00000000004F280008000000004F28000826
:1030AC00EC2F00083B290008EC2F00083129000800
:1030BC00EC2F000827290008EC2F00081D29000818
:1030CC00EC2F000813290008000000004F2800080E
:1030DC00000000004F280008000000004F280008E6
:1030EC00000000004F280008000000004F280008D6
:1030FC00000000004F280008000000004F280008C6
:10310C00000000004F280008000000004F280008B5
:10311C00000000004F280008000000004F280008A5
:10312C00000000004F280008EC2F000809290008B7
:10313C00000000004F280008000000004F28000885
:10314C00000000004F280008000000004F28000875
:10315C00000000004F280008000000004F28000865
:10316C00000000004F280008000000004F28000855
:10317C00000000004F280008000000004F28000845
:10318C00000000004F280008000000004F28000835
:10319C00000000004F280008000000004F28000825
:1031AC00000000004F280008000000004F28000815
:1031BC00EC2F0008FF280008000000004F28000832
:1031CC00000000004F280008000000004F280008F5
:1031DC00000000004F280008000000004F280008E5
:1031EC00000000004F280008000000004F280008D5
:1031FC00000000004F280008000000004F280008C5
:10320C00000000004F280008000000004F280008B4
:10321C00000000004F280008000000004F280008A4
:10322C00000000004F280008000000004F28000894
:10323C00000000004F280008000000004F28000884
:10324C00000000004F280008000000004F28000874
:10325C00000000004F280008000000004F28000864
:10326C00000000004F280008000000004F28000854
:10327C00000000004F280008000000004F28000844
:10328C00000000004F280008000000004F28000834
:10329C00000000004F280008000000004F28000824
:1032AC00000000004F280008000000004F28000814
:1032BC00000000004F280008000000004F28000804
:1032CC00000000004F280008000000004F280008F4
:1032DC00000000004F280008000000004F280008E4
:1032EC00000000004F280008000000004F280008D4
:1032FC00000000004F280008000000004F280008C4
:08330C00000000004F2800083A
:10331400010000800080FF7F010000800080FF7FAB
:10332400010000800080FF7F010000800080FF7F9B
:10333400010000800080FF7F00800080FF7F00800C
:0E334400008003000400050006000700FF7F64
:02335200FFFF7B
:103354006000000001000000343000080400100088
:1033640034300008030000000000002000000000CA
:1033740000000B0602000000803300080000000873
:10338400E43400082200020700000020EC340008A6
:103394001E000B11FFFF0000001C00480700000086
:1033A4004C00000080000000FFFF000000080048FF
:1033B400020000004C00000004000000FFFF0000B9
:1033C40000040048010000004C000000020000005E
:1033D400FFFF000000000048000000004C00000057
:1033E40001000000592B0008BF290008CB29000860
:1033F400DD290008E7290008F12900086116000802
:10340400FF290008000000000044004028340008A0
:1034140001000000000000000000000000000000A7
:10342400303400085800000000000200383400085E
:1034340001000000403400080200000047000000C2
:1034440000020000E301000000000000E92C000875
:10345400AF2C00085B2C0008791800080B2D00081D
:103464004C300008343000081C3000080000000014
:10347400000000000000000000000000043000080C
:10348400000000000000000000000000A086010011
:10349400400D0300801A060000350C0040420F0066
:1034A40080841E0000093D0000127A000024F4000C
:1034B40000366E010048E801006CDC027C2F000835
:1034C400CC2F0008D42F0008D42F0008D42F0008D4
:1034D400F5FFFFFF001000000030286E696C290022
:1034E400464C4153485F30005352414D5F300069B0
:1034F4006E746572727570742D636F6E74726F6C16
:103504006C65724034303031303430300006070896
:10351400090A1717171717282828282828726363F9
:10352400403430303231303030006770696F4034AD
:1035340038303031633030006770696F4034383070
:103544003030383030006770696F40343830303094
:10355400343030006770696F403438303030303088
:10356400300073657269616C40343030303434300B
:103574003000000000000000000001020304060700
:1035840008096D61696E007A65706879722D763309
:103594002E312E302D343931382D67303261626549
:1035A40065653636623731002A2A2A20426F6F74E5
:1035B400696E67205A6570687972204F532062756E
:1035C400696C64202573202573202A2A2A0A0000A6
:1035D40051270008AD28000845290008692900087A
:1035E40000000000FD1300080000000000000000BF
:1035F4008D29000800C201000000000000093D0000
:0836040030000020300000201E
:10360C0000000000000000000000000000000000AE
:0C361C00000000000000000000000000A2
:04000005080010EDF2
:00000001FF
