:020000040800F2
:1000000080100020F11F000893420008C51F00085F
:10001000C51F0008C51F0008C51F0008000000001C
:100020000000000000000000000000005919000856
:10003000C51F00080000000005190008CD2D0008AC
:10004000091A0008091A0008091A0008091A000804
:10005000091A0008091A0008091A0008091A0008F4
:10006000091A0008091A0008091A0008091A0008E4
:10007000091A0008091A0008091A0008091A0008D4
:10008000091A0008091A0008091A0008091A0008C4
:10009000091A0008091A0008091A0008091A0008B4
:1000A000091A0008091A0008091A0008091A0008A4
:1000B000091A0008091A0008091A0008091A000894
:1000C000091A0008091A0008091A0008091A000884
:1000D000091A0008091A0008091A0008091A000874
:1000E000091A0008091A0008091A0008091A000864
:1000F000091A0008091A0008091A0008091A000854
:10010000091A0008091A0008091A0008091A000843
:10011000091A0008091A0008091A0008091A000833
:10012000091A0008091A0008091A0008091A000823
:10013000091A0008091A0008091A0008091A000813
:10014000091A0008091A0008091A0008091A000803
:10015000091A0008091A0008091A0008091A0008F3
:10016000091A0008091A0008091A0008091A0008E3
:10017000091A0008091A0008091A0008091A0008D3
:0C018000091A0008091A0008091A0008F2
:04018C00FFFFFFFF73
:1001900053B94AB9002908BF00281CBF4FF0FF31EE
:1001A0004FF0FF3000F00CB8ADF1080C6DE904CE53
:1001B00000F008F8DDF804E0DDE9022304B0704740
:1001C000704700BF2DE9F04786468C460846089EDA
:1001D000154674461946002B40F0C2808542B2FA9B
:1001E00082F245D94AB1C2F1200300FA02FC2EFA8C
:1001F00003F3954043EA0C0C94404FEA154EA8B225
:10020000BCFBFEF8230C0EFB18CC08FB00F943EAFC
:100210000C43994528D9EB1808F1FF3704D29945CA
:1002200002D9A8F102072B44A3EB0903A4B2B3FB44
:10023000FEFC0EFB1C330CFB00F044EA0344A0421E
:1002400014D92C190CF1FF3304D2A04202D9ACF11D
:1002500002032C44241A43EA07401EB1D440002371
:1002600034607360BDE8F0874746DDE76346F1E739
:1002700092BB431B01214FEA154EAFB2B3FBFEFC0C
:10028000200C0EFB1C330CFB07F840EA0343984597
:1002900062D9EB180CF1FF3004D2984502D9ACF1C9
:1002A00002002B44A3EB0803A4B2B3FBFEFC0EFB3D
:1002B0001C330CFB07F744EA0344A7424ED92C1920
:1002C0000CF1FF3304D2A74202D9ACF102032C4453
:1002D000E41B43EA0040C0E7C2F1200320FA03F127
:1002E000954090402EFA03F303434FEA154EAFB208
:1002F000B1FBFEFC0EFB1C10190C0CFB07F841EACD
:100300000041884504FA02F422D969180CF1FF3043
:1003100004D2884502D9ACF102002944A1EB0801BE
:100320009BB2B1FBFEFC0EFB1C110CFB07F743EA72
:1003300001439F420ED9EB180CF1FF3104D29F42CA
:1003400002D9ACF102012B44DB1B41EA004192E7E8
:100350006046E3E76146F7E76046A3E76346B7E731
:10036000834206D916B9002108467BE7C6E900E0BA
:10037000F9E7B3FA83F78FB9834201D3724508D8FE
:10038000BEEB020460EB030301209C461EB9002172
:1003900068E73846FAE7C6E9004CF8E7C7F1200CF1
:1003A000BB4022FA0CF41C432EFA0CF120FA0CF399
:1003B000B84001434FEA14490EFA07F5B3FBF9F8C8
:1003C0001FFA84FE09FB18300B0C08FB0EFA43EAF7
:1003D00000439A4502FA07F240D9E31808F1FF30CA
:1003E00004D29A4502D9A8F102002344A3EB0A03E0
:1003F00089B2B3FBF9F809FB183308FB0EFE41EA9A
:1004000003418E452CD9611808F1FF3304D28E4583
:1004100002D9A8F10203214443EA0040A0FB02985C
:10042000A1EB0E014145CE46434602D306D14D45D0
:1004300004D2B9EB020E68EB04030138002EA6D0FB
:10044000B5EB0E0261EB030101FA0CFC22FA07F393
:100450004CEA0303F940C6E9003198E74046C5E796
:100460004346D9E7000000002DE9F04F87B005466C
:10047000039117461E46836804AA5B6898470028C4
:1004800031DBDDE9044AA7FB04B307FB0A37584612
:1004900019A3D3E900233946FFF77AFEDFF860801D
:1004A00002904FF0FF39D94578EB07031ED3A6FB26
:1004B00004B406FB0A4410A3D3E90023214658469E
:1004C000FFF766FED94578EB040403460ED3029984
:1004D000AA6899420DD3BDF84010009114682846CF
:1004E000DDE90221A04707B0BDE8F08F6FF085007D
:1004F000F9E76FF01500F6E700CA9A3B000000002C
:10050000FFC99A3B2DE9F74F2A4C204604F0D1F958
:1005100030B92168284803B0BDE8F04F03F0B0BD02
:100520002648274E022103F0ABFD06274FF00009B5
:10053000B0467608CDF80090334642460221204668
:10054000FFF792FF0546C0B91E4A1F48DFF86490C6
:10055000DFF878A0DFF878B0414603F091FD474618
:1005600000237C080093022123463A464846FFF7C1
:100570007BFF014630B11748CDE7013FD8D116497E
:100580001648C8E76DB1B8EB470F4FEA470401D2F0
:100590003446054649F64040002103F05DFB2746FE
:1005A000DEE7444504D85445F4D801255C46F1E71C
:1005B0003446EFE7584B0008FA5000081D51000878
:1005C00000CA9A3B9435770076510008933577003E
:1005D000286BEE00AD51000850D6DC013C510008FC
:1005E0002DE9F04F8DB09B4602F004030293C2F355
:1005F000C20301338407169D039206460F460593F6
:1006000040F09D81041D30B1072909D86FF01B000F
:100610000DB0BDE8F08F01F007073C1DC7F10807DA
:100620000BF1FF3301934FF00408002304931A46A3
:100630009A46C1460EB1C4F800B00598002800F3F0
:10064000E3809248834503D391488345C0F0DC8022
:100650000399A4EB060E89074FEA9E0000F1F9808A
:100660000F2A00F2AF80002E00F0F980C0B202F134
:1006700030010DEB010C0CF8100C049801300490C3
:10068000DFE07A2832D84B280BD847282ED82928E3
:100690002FD820287DD02338D0F1000A4AEB000A59
:1006A00077E0A0F14C0CBCF12E0F1FD8DFE80CF066
:1006B000711E1E1E1E1E1E1E1E1E1E1E4B1E1E1EDA
:1006C0001E1E1E1E1E5B1E4B4B5B5B5B714B6E1E2C
:1006D000711E184B181E1E827F4B1E1E4B1E7F0064
:1006E00000204FF0000A4FF004083AE04FF0000AF3
:1006F0004FE0A0F12A0C5FFA8CFC012101FA0CFCFE
:100700001CEA0E0F45D11CF062502CD11CEA010AE4
:100710003FD0013C4444C8F1000C04EA0C04002E14
:100720005ED0A9EB060CA444BC453FF66FAF002891
:1007300064D1B9F1040F42D155F8040B20600434A0
:100740004FF0040925E0019911F8010C6C2833D110
:1007500011F8020C6C284FF000008246C3D14FF014
:100760000808C146D5E7073525F007050734F5E841
:10077000028924F0070436B106982044B8423FF6B7
:1007800045AFC4E9008908344FF0000A4FF008086B
:10079000C146019911F8010F019100286DD0BAF1FD
:1007A000000F7FF46EAF2528F3D14FF0010A4FF010
:1007B0000408EDE7504694E700208246A9E7B9F126
:1007C000080F02D06FF0150022E7073525F0070566
:1007D000F5E80201C4E9000108344FF00809D8E740
:1007E00060B9B9F1040F01D10435A8E7B9F1080FD8
:1007F000E8D1073525F007050835EDE7059955F8E7
:1008000004BB0139059115E7039989071AD5A4EBB3
:10081000060E4FEA9E004FF0010CBEF5007FD1D2CC
:100820000F2ACFD8C6B1C0B2BCF1000F3FF41FAF42
:1008300002F130010DEB010C60F07F000CF8100CA0
:1008400001330132C6F10801043406914FF6DA7E15
:100850009FE74FF0000CE0E7BCF1000F01D10298D8
:1008600008B10137EDE75846CDE9062303F038FD1E
:100870000237DDE906230744E3E7A11BB1F5806FEA
:10088000A0D23EB9A7F108000844C1E6484A0008D2
:10089000085A000830600298890831709DF81010DD
:1008A00088B1F170B3702BB108A80025C6F1010C16
:1008B000AA420AD108AD05EB0208C6F10109A84514
:1008C00013D1A01BA4E67170ECE710F8011B11F026
:1008D000800F08D004EB0C0EBE4501F07F013FF6FF
:1008E00095AE04F8011B0135E2E71BB195F9002034
:1008F000002A1FDB029AFAB92A78019356F822B02F
:10090000029B46F82230584603F0EAFC019B00F1B6
:10091000010A04EB09025244BA4201933FF676AE53
:100920002A7804F8012B59462046524603F0E8FC89
:10093000019B54440135C2E74FF0000AE9E76FF02C
:100940000D0065E6014B1860704700BF00000020F5
:100950002DE9F04F814695B08B4617461C46002581
:10096000387808B9284658E37B1C2528039306D01D
:100970005946C8470028C0F250830135FBE11822D0
:1009800000210EA803F0C7FC7B78252B7DD0002327
:10099000781C98469E469C461E46014610F8012B40
:1009A0002B2A00F0A18000F29880202A00F09F807E
:1009B000232A00F09F802BB19DF8403043F0400384
:1009C0008DF84030B8F1000F05D09DF8403043F06D
:1009D00020038DF84030BEF1000F05D09DF8403067
:1009E00043F010038DF84030BCF1000F05D09DF8A6
:1009F000403043F008038DF840302EB19DF8403070
:100A000043F004038DF840309DF8403003F044007B
:100A1000442803D16FF386138DF840309DF84030A1
:100A20002A2A43F080038DF840307FD19DF8412081
:100A300042F001024B1C8DF841201A782E2A9DF8B5
:100A400041200CBF0121002161F341028DF84120BA
:100A500078D15A782A2A6ED0013300224FF00A0C3E
:100A6000194611F8010BA0F13006092E40F29580CD
:100A70009DF840101292C1F3400040EAD2700A463D
:100A800060F341028DF840205CE0BA1C03928DF8BF
:100A900043309DF84130DA0740F12E8154F8048B41
:100AA000B8F1000F07DA9DF8402042F004028DF8FB
:100AB0004020C8F100085E0740F1278154F804ABDC
:100AC000BAF1000F80F226819DF841306FF34103A7
:100AD0008DF841304FF0FF3A1CE12D2A0DD0302A1D
:100AE0007FF469AF012358E74FF0010C55E74FF051
:100AF000010E52E74FF001084FE701264DE70EFBCC
:100B00000262303A0346184610F8016BA6F1300C29
:100B1000BCF1090FF3D999428FD09DF84010119282
:100B2000D20F62F341018DF8401086E70B46002298
:100B30004FF00A0EE7E79DF8412042F004028DF8DD
:100B4000412002331A786C2A47D02BD8682A31D03A
:100B50006A2A4BD04C2A51D01A4612F8013B039214
:100B6000782B9DF841208DF8433000F2BE806D2B2C
:100B700051D8692B00F2B980572B67D8412B03D08D
:100B8000453B022B00F2B1809DF84230042262F313
:100B900002038DF84230012373E00CFB0202303A6D
:100BA0000B465DE7742A25D07A2AD5D19DF84120DD
:100BB00006210CE05A78682A9DF8412006D10121CF
:100BC00061F3C6028DF841200233C5E7022161F3CB
:100BD000C6028DF841200133BEE75A786C2A9DF891
:100BE000412001D10421EBE70321F0E79DF84120EA
:100BF0000521ECE79DF841200721E8E7BDF84020FA
:100C000022F4F04222F0020242F4804242F0020258
:100C1000ADF84020DFE76E3BD9B201238B4040F2B4
:100C200082410B4237D113F0240F51D1D8075CD544
:100C30009DF84230032161F302038DF8423002F047
:100C40007803A3F140014B424B411AE0A3F1580154
:100C5000C9B2012000FA01F111F4624F94D140F6BB
:100C6000010631421DD111F4043F3ED09DF84230BF
:100C700060F3020302F07802402A8DF8423034D04B
:100C800000239DF84020C2F340010B4363F341026F
:100C90008DF84020FDE69DF84230022161F3020309
:100CA000E8E79DF84210022002F0780260F30201AA
:100CB000402A8DF8421002BF9DF8401041F001011A
:100CC0008DF84010632BDBD1131E18BF0123D8E72A
:100CD0009DF84230032161F3020312F0780F8DF882
:100CE000423014BF01230023CBE79DF8403043F08E
:100CF00001038DF84030C3E79DF94020002AB4BFBE
:100D0000DDF844804FF0FF38D5E698077FF5E2AE76
:100D1000DDF848A09DF841100023CDE911339DF87E
:100D2000423003F00703012BC1F3C30133D1CB1EC3
:100D3000042B04D8DFE803F0214646212100236874
:100D400001294FEAE372CDE90E321CD19DF938300A
:100D5000DA17CDE90E3204349DF8403013F0030663
:100D600050D0039B3A465946484603F0E6F900281E
:100D7000C0F253810544039FF2E554F8043BDA17AF
:100D8000CDE90E32E8E70229E5D11AB243F3C033C8
:100D9000CDE90E23DFE7022B24D1CB1E042B04D890
:100DA000DFE803F0181010181800012954F8043B6C
:100DB0004FF0000214D00229CDE90E32CCD19BB203
:100DC0000E93C9E7073424F00704F4E80223CDE9C1
:100DD0000E23C1E754F8043B0E9300230F93BBE7A7
:100DE000DBB2CDE7042B08D1073424F00704D4E9A3
:100DF00000230834CDE90E23AEE7032BACD154F821
:100E0000043BDDE79DF843007828B4D862281CD85D
:100E100025283FF4ADAD5828ADD10DF13603009330
:100E2000DDE90E0108AB10AA03F041F9BAF1000F99
:100E3000074680F29A80002F9DD00DF13603D81B13
:100E4000002E00F0C1800130BEE06338152892D832
:100E500001A252F820F000BF2D0F00083F0F00083C
:100E6000770D0008770D0008770D0008770D000852
:100E70003F0F0008770D0008770D0008770D000878
:100E8000770D0008CD0F0008650F00088B0F0008D4
:100E9000770D0008770D0008B10E0008770D0008E7
:100EA000650F0008770D0008770D0008650F000832
:100EB000BAF1000F0E9F35DB5146384603F017FAA2
:100EC00007EB000A002F3FF456AF00269DF8423092
:100ED00013F01002059200F0938002305B06119A25
:100EE00048BF129B0492104448BFC018B8F1000FCD
:100EF00040F3A0809DF84020A8EB0008C2F38003D7
:100F00005007069300F19680510640F189803EB16A
:100F100059463046C84700287FDB069B01351E46F0
:100F200030227EE0384603F0DBF9C9E70E9B8DF8EE
:100F30002030002608AF0DF1210A0120C6E719076D
:100F40005CBFC3F300135E01DDE90E2348BF2B260F
:100F5000002BBFF662AF524263EB4303CDE90E2391
:100F60002D265AE7002658E700269DF840200DF16F
:100F70003603DB1B6FF386129A458DF840207FF60F
:100F80005AAFAAEB0303119355E70E9890B30DF1F6
:100F90003603009310AA08AB002103F088F8BDF8CF
:100FA000423003F0EF0343F4F04343F01003BAF18F
:100FB000000F0746ADF84230D6DA00283FF4DBAE2A
:100FC0000DF13603181A00269A467FE70E9B072973
:100FD0003FF6D1AEDFE801F00C04060C08080C0C5B
:100FE0001D70C8E61D80C6E6EA17C3E90052C2E6D6
:100FF0001D60C0E62E4F064607F1050A052065E78D
:101000001A0748BF013069E7079310460692594610
:10101000C8470028DDE9062304DA15B0BDE8F08FE3
:10102000202243461946002903F1FF33ECDC4544F6
:101030006D1A98462EB159463046C8470028ECDB59
:1010400001359DF84230DA0601D41B0705D5594613
:101050003020C8470028E0DB0135059B33B19DF8FF
:1010600043005946C8470028D7DB0135049E2E446B
:1010700005E059463020C8470028CEDB0135731BF8
:10108000002BF6DC53463A465946484603F055F8DD
:101090000028C2DB0544A844A8EB0503002B7FF71A
:1010A0006AAE59462020C8470028B6DB0135F3E771
:1010B000D25100084FF01002EFF3118382F312882F
:1010C000BFF36F8F83F31188BFF36F8F024B034A17
:1010D0001A600020704700BF3000002000093D006A
:1010E0002DE9F74F344BBFF35B8F82460F4653E831
:1010F000005F6A1C43E800210029F8D1BFF35B8F31
:101100007DB92E4C2E4E361B3611A946A0464FF007
:10111000010BB14508DBBAF1000F02D04FF0010A14
:10112000FDB903B0BDE8F08F237B73B12368DA68A3
:101130001AB1204601939047019B1B694BB9636824
:1011400004221968204600F0C5F809F1010910349D
:10115000DFE7204698470028F1D00BFA09F31D433A
:10116000F3E7A94695FAA5F4B4FA84F40AFA04F36D
:10117000260108EB04146FEA030B25EA0305237B21
:1011800063B158F806301B698BB946440422736872
:101190002046196809EA0B0900F09CF8002DE1D1FE
:1011A0001FB16420002102F057FD4D46B8E72046EC
:1011B00098470028F2D1E8E770010020884E000827
:1011C000984E0008014B53F820007047A04E0008CD
:1011D000054A00231370054A1360054B054A1A603F
:1011E0004FF47A7000F078BAA8020020680100205D
:1011F0000400002073410008F8B50D4F3D785DB93B
:101200000C4C0D4E29460120FFF76AFF361B3611A4
:10121000B54202DB01233B70F8BD63685B791BB10B
:10122000236820469B68984701351034F0E700BFDB
:10123000A8020020884E0008984E00080C4BBFF30F
:101240005B8F53E8001F013143E80012002AF8D1F8
:10125000BFF35B8F58B1BFF35B8F064B53E8001FA2
:10126000013943E80012002AF8D1BFF35B8F7047C1
:10127000680100206C010020F8B50C4B0C4C1B6879
:101280000C4D064698472D1BB0602D110027AF422C
:1012900000DBF8BD63685B7923B1236831461B68C6
:1012A0002046984701371034F1E700BF04000020C2
:1012B000884E0008984E0008044A054B9B1AB1EB73
:1012C000D30F34BF52F8310000207047504E000851
:1012D000884E0008064B4268C31A1B110133137174
:1012E00043681960436801225A7102F05FBF00BF72
:1012F000884E00082DE9F04F85B002AFD7E90EA95E
:101300003D6B04460E4693469846BAF1000F35D021
:10131000C7F80490CDF8009010217A6B5346002056
:10132000FFF75EF90146164A04F007040BF0070BBD
:10133000E40002EA412244EA8B141443114A02EA0F
:10134000C54217350D4425F00705ADEB050D1443D7
:1013500002ADBAF1000F07D0CDF800907A6B53467A
:1013600005F11000FFF73CF9434622463146284676
:1013700002F01FFF0C37BD46BDE8F08F5146D2E7A3
:1013800000FE07000000F87F0EB403B503AB014672
:1013900053F8042B0448019302F04EFF02B05DF8AD
:1013A00004EB03B0704700BFE7410008CA0605D44C
:1013B0008B064CBF02490349FFF7E6BF704700BFE9
:1013C000E1510008E05100082DE9F04F89B09B463B
:1013D0009DF848300493DDE913930593049B06922E
:1013E000DDE9157604460D46002B00F0878006F0F7
:1013F0000803079302F0DBFE06F0020A024600280B
:101400004BD086492046FFF7BFFF8046BAF1000F58
:1014100008D016F0440F42D181492A462046FFF7F2
:10142000B3FF804406F001035BB17E4B049A7E4912
:1014300053F822207D4B2046002A08BF1A46FFF7AA
:10144000A3FF06F00803002B55D0794B049A794985
:1014500053F822202046FFF797FF0546069B2BB145
:1014600075491A462046FFF78FFF0544BBF1000F70
:1014700005D072495A462046FFF786FF0544454489
:10148000B9F1000F49D1002F4FD1F30700F1C0800F
:1014900031462046FFF78AFFB4E08046B6E7684B46
:1014A00018680028BDD0674B4FF47A7E1B68B5FBE7
:1014B000F3F54FF46162B5FBF0F300FB1355B3FB9A
:1014C000F2FA0EFB05F502FB1A323C21B5FBF0FCEB
:1014D000B2FBF1F300FB1C5501FB13220EFB05F5DB
:1014E0000092B5FBF0F55849CDE901C552462046BA
:1014F000FFF74AFF95E706F00805AFE7BBF1010FDC
:1015000006D1B9F1000F64D1002F7BD000250CE08B
:10151000B9F1000FF8D04D485CE04D484D494B46BD
:10152000224602F07EFD002F68D0DFF82C91DFF814
:101530002CA1102F31462046B84628BF4FF0100886
:10154000FFF734FF4FF0000B5D4545DC059B51462E
:101550001A782046FFF718FF4FF0010B1BF0070F1A
:1015600003D149462046FFF70FFFD8453BD9059BDD
:10157000514613F80B202046FFF706FF0BF1010B35
:10158000BBF1100FEAD1364920464FF0000BFFF7B0
:10159000FBFE5A46059B9A5CA2F120015F2928BFF9
:1015A0002E2230492046FFF7EFFE0BF1010BBBF175
:1015B000100F1DD01BF0070F03D149462046FFF73F
:1015C000E3FED8455A46E5D849462046FFF7DCFEFB
:1015D000EBE71F48049DA1E749462046FFF7D4FEEC
:1015E0000BF1010BB0E720492046FFF7CDFEC5E720
:1015F000059BB7EB0807434405939AD1049B002B46
:101600007FF443AF204609B0BDE8F04F02F01BBEA7
:10161000064A05492046FFF7B7FE39E7E8510008BA
:10162000EC510008AC4E000811520008E3510008CC
:10163000C04E0008145200081A5200081E5200083A
:101640007801002074010020F551000803420008D1
:10165000E7410008394200082B52000823520008D5
:101660002D5200082F520008295200082DE9F041A0
:101670000F884B688E6886B005460C469046C7F3C7
:1016800082175BB1134A9B1A43F3CF0100291FDB7A
:101690002078C0F3C200FFF70FFE034621466088A2
:1016A00051F8102B0097C2F34922002A01EB0204E3
:1016B000C0F3CB0008BF0021CDE90308CDE9011438
:1016C000002231462846FFF77FFE06B0BDE8F081D4
:1016D0000023E3E7504E0008074A0021012390420F
:1016E00006D8064A01B901231360054B18607047FC
:1016F00040085B000121F2E740420F007401002026
:1017000078010020014B00201960704790010020F3
:10171000024B034801221A7002F095BDAA02002074
:10172000F04E000810B5064B18680C46FFF74AFD4E
:1017300021460346BDE8104002480F22184700BF6B
:1017400090010020F04E0008F8B5074F0D46044602
:101750004618B44201D12846F8BD14F8011BBB68F5
:1017600001485B689847F4E7404B000801491022A4
:101770000A60704710ED00E072B6404080F31188B7
:10178000BFF36F8FBFF34F8F30BF62B6BFF36F8F62
:10179000704700BF70B5064686B00D46002938D0A8
:1017A0008B6805934B6804930B68039300241C4BD0
:1017B0001C490293012223462046CDE9004402F051
:1017C00050FD6B6905932B690493EB680393164BEB
:1017D00014490094CDE9014301222346204602F03A
:1017E00040FDEB690393114B0E490094CDE9014391
:1017F00001222346204602F034FDAB6903930C4BD3
:1018000008490094CDE9014301222346204602F015
:1018100028FD2946304606B0BDE8704001F032BED2
:101820006C520008684E00089B520008CA5200081B
:10183000D952000840B2002807DB044A41090123BD
:1018400000F01F00834042F82130704700E100E0C3
:1018500040B20028A8BF00F1604001F10101B8BF0B
:10186000064B4FEA0111ACBF00F5614000F00F00DC
:10187000C9B2B4BF195480F80013704714ED00E0EA
:1018800030BFFFF7FDBF00BF0F4A08B50F4B22F076
:101890007F029A60BFF34F8FBFF36F8FD3F888201A
:1018A00022F47002C3F88820EFF3148323F00403BA
:1018B00083F31488BFF36F8F01F062FE02F04AFADF
:1018C00000F08AFB01F0A0FE0000000800ED00E03F
:1018D000094A0A49936809689967094958674B6832
:1018E00043F080534B60002383F31188BFF36F8F65
:1018F0009368986F704700BF74020020DC500008A6
:1019000000ED00E012498A684FF030001044EFF318
:10191000098C80E8F01F102080F31288BFF36F8FCE
:101920000C4F4FF000668A698A603E60506F00235A
:10193000536780F3118804B5104600F091FBBDE8B1
:10194000044002F1300090E8F01F8CF309887047E2
:101950007402002004ED00E01EF0040F0CBFEFF352
:101960000880EFF30980816911F8021C0229FFD079
:1019700001B502F086FC01BD42F8203C009B42F814
:101980001C3C0A49019B42F8183C029B42F8143C5B
:1019900021F001014FF0807342F8043C42F8081C2A
:1019A0000023203A02654367704700BF9B40000850
:1019B000094A0346906870B113F1160F406E05D0C6
:1019C000A0F140029A4205D8834203D2814228BF47
:1019D00000207047002070477402002008B5094BB2
:1019E00098600D46144600F03BFB204685F30988BD
:1019F000002163B681F31188BFF36F8F00220023AB
:101A000002F04BFB7402002001B5EFF30580A0F15A
:101A100010004FEAC0000449014409C99847BDE8D5
:101A20000140024908470000704B0008311A0008C5
:101A3000044B99689869884203D003494FF080525B
:101A40000A6070477402002004ED00E0F0B585B034
:101A500000243B4B0293CDE90044234607460E4643
:101A600001223849204602F01BFC374B9B6ADB04FD
:101A700009D5364B33490094CDE901430122234671
:101A8000204602F00DFC304B9B6A1D0509D5304BFA
:101A900002930023CDE900332A490122184602F0BF
:101AA000FFFB294DAB6A9C051ED50024294B0293F0
:101AB000012223462046CDE90044224902F0F0FBF2
:101AC000AB6BAA6A10040FD50393234B1D490094F6
:101AD000CDE9014301222346204602F0E1FB1FB17C
:101AE000AB6A23F40043AB62174B9B6A590509D5D7
:101AF0001A4B02930023CDE9003312490122184604
:101B000002F0CEFB104A936A13F4807312D0144B88
:101B100002930023CDE900330A490122184602F05E
:101B2000BFFB094A936A002043F47F4393623070FD
:101B300005B0F0BD926A9204F3D50A4A0292E9E731
:101B400007530008684E000800ED00E01D53000830
:101B50002E530008415300085A5300086F530008E1
:101B60008A530008A25300081FB50024334B029388
:101B7000CDE90044234632490122204602F090FB81
:101B8000304B9B6A9B0109D52F4B2D490094CDE921
:101B9000014301222346204602F082FB294B9B6A27
:101BA000DC0109D5294B02930023CDE900332449F8
:101BB0000122184602F074FB224B9B6A180309D5D8
:101BC000234B02930023CDE900331D49012218461F
:101BD00002F066FB1B4B9B6A590309D51D4B029310
:101BE0000023CDE9003316490122184602F058FBC4
:101BF000144B9B6A9A0309D5174B02930023CDE936
:101C000000330F490122184602F04AFB0D4B9B6A34
:101C1000DB0309D5114B02930023CDE900330849BA
:101C20000122184602F03CFB064A936A6FEA03431E
:101C30006FEA13430020936204B010BDD153000833
:101C4000684E000800ED00E0E9530008FC5300086E
:101C500016540008345400085954000873540008FE
:101C60002DE9F04385B00024494B0293CDE90044AF
:101C7000234680468946204646491646012202F000
:101C80000FFB454B9B6AD80609D5444B414900944C
:101C9000CDE9014301222346204602F001FB3E4BE1
:101CA0009B6A190709D53E4B02930023CDE9003307
:101CB00038490122184602F0F3FA374DAB6A9A0709
:101CC00036D46FF01507344B9B6ADD0709D5354BC9
:101CD00002930023CDE900332E490122184602F079
:101CE000DFFA2D4B9B6A9C0609D52F4B02930023EC
:101CF000CDE9003327490122184602F0D1FA264CDB
:101D0000A36AD80636D4A36A990733D40020A36AFD
:101D1000214A9B0642BF636A23F400536362936ABD
:101D200043F0FF0393620023337005B0BDE8F083F6
:101D300000241E4B0293CDE900442346154901229D
:101D4000204602F0ADFA6F6BAB6A1B06B9D5184B93
:101D500010490397CDE90143009423460122204610
:101D600002F09EFAB9F1000FADD0AB6A23F0800308
:101D7000AB62A8E763681A05C8D541463846FFF745
:101D800017FE0028C2D080F309880220BFE700BFF9
:101D90009E540008684E000800ED00E0B4540008AE
:101DA0002E53000815550008A2530008E7540008F8
:101DB000FF5400082DE9F041724B5F6890B0054672
:101DC000C7F30804002383F31188BFF36F8F02F079
:101DD0007F40B0F17F4F0CD102F00C00082819D1E0
:101DE000694A6A490093CDE901321846012202F09E
:101DF00057FA002635464FF00008E31E8DF81F8085
:101E0000092B00F2A680DFE803F00B9A9E96A4A4AB
:101E1000A4A4A4A2120746BF0D461E460126EAE767
:101E20005B4B5A49574FCDF80080CDE90183002321
:101E30000122184602F034FA8DF81F80FC6A14F073
:101E4000020405D0534BCDF80080CDE9018306E0B4
:101E5000FB6A002B0BDA504B0094CDE901430023C1
:101E60004A490122184602F01BFA00243AE0FB6AB4
:101E70005B00FAD5494B45490094CDE90143012265
:101E80002346204602F00CFA7B69AA6943F480736A
:101E90007B61BFF34F8FBFF36F8F7B6932F8022CEA
:101EA00023F480737B61BFF34F8FBFF36F8F4DF6C9
:101EB00002739A4209D0BB6ADBB273B30DF11F0201
:101EC00001212846FFF7CCFE37E02B680393344B03
:101ED0000094CDE90143204623462C49012202F01B
:101EE000DFF92C689DF81F30A3B9202229460DEB9D
:101EF000020002F005FA0F9B002E3ED0C3F3080249
:101F000022B96FEA53236FEA43230F9308A92046AF
:101F1000FFF740FC10B0BDE8F081BB6A13F47F4FBF
:101F200005D00DF11F010120FFF790FD05E0BB6A10
:101F3000B3F5803F99D3FFF717FE0446D2E70DF1C2
:101F40001F020021BDE70DF11F010020ECE7154B3A
:101F500079E7154A154B0D4917F4F87F18BF13465A
:101F6000103CCDE90334124B02930023CDE900333A
:101F70000122184602F094F977E723F4FF7323F067
:101F80000103C2E700ED00E062550008684E00085A
:101F90008D550008A4550008C5550008D355000804
:101FA000F25500080E56000849550008345500083F
:101FB00032560008024A536943F0100353617047D8
:101FC00000ED00E0EFF30880EFF3098101B5724600
:101FD000FFF7F0FE01BD00BF044800231021C21826
:101FE0000133532B82F80013F9D1704700E100E070
:101FF000102080F3118808484FF40461401880F3E2
:102000000988EFF314800221084380F31488BFF39A
:102010006F8FFFF739FC0000C0020020084B9B685F
:1020200083420BD1EFF3058343B1064B5A6842F06C
:1020300080525A605A6A22F400425A6201F02ABE63
:102040007402002000ED00E0024B034A0348012126
:1020500000F086B80000012000000020004F0008BA
:10206000426E054B403A1A60044A4021C3E901120E
:102070001846012100F07EB89401002000000B15E5
:10208000F0B5284E85B000258D4215DA4468002C45
:1020900045D0D3B104F1FF3C14EA0C0F0FD0224B12
:1020A0000395029300230122CDE900331F4918460E
:1020B00002F006F96FF01502104605B0F0BD1F2CB6
:1020C000EDD907681CEA070FE9D1202C0768D0F882
:1020D00008C05FFA82FE10D9B4F1004F0FD8013C5E
:1020E000B4FA84F4C4F11F046400BEF1070F4CEA93
:1020F000040C06D90E4B0392D3E70824F5E73E24DF
:10210000F3E727F01F04144344F01004C6F89820A6
:10211000C6F89C404CF00104C6F8A04001320135DD
:102120000C30B1E700ED00E049560008604E0008B1
:102130006C560008044B0522C3F89420BFF34F8F60
:10214000BFF36F8F704700BF00ED00E0BFF35F8FFC
:10215000024B0022C3F89420704700BF00ED00E05E
:1021600010B5034C01232278FFF78AFF207010BDC1
:10217000AB02002008B5094A00231278FFF780FF60
:1021800010F1160F03D0064B0022072800DD08BD12
:10219000C3F89800C3F8A0200130F6E7AB02002096
:1021A00000ED00E014490868082810B521D8FFF7B1
:1021B000CDFF124C49680022904201F10C0105D17B
:1021C0000F4B1870FFF7B6FF002010BDC4F8982021
:1021D00051F80C3C23F01F03134343F01003C4F8E1
:1021E0009C3051F8043C43F00103C4F8A0300132A4
:1021F000E2E74FF0FF30E8E70C4F000800ED00E0A9
:10220000AB020020014B1860704700BF080000209F
:102210002DE9F8430D4F04460E4615464FF00108D0
:1022200002F10409B44201DBBDE8F8837A6908FAD7
:1022300004F333EA020207D17B6155F834301BB155
:1022400059F83410204698470134EBE70004014068
:10225000044A0123116883400B431360024B185654
:10226000FFF7E8BA00040140BF5600081F2806DC4B
:10227000034901220B68824023EA02030B60704786
:102280000004014003292AD8DFE801F0020E141FE0
:10229000134B01229968824021EA02019960D968B2
:1022A00021EA0202DA6070470D4B012299688240F0
:1022B0001143F3E70A4B0122D96882401143D960E8
:1022C000996821EA02029A607047012303FA00F03C
:1022D000034B9A6802439A60DA681043D8607047EB
:1022E0000004014010B5074B044653F8300028B9EC
:1022F00043F8341003EBC4035A6010BD6FF00F00B5
:10230000FBE700BFA0010020034B002243F8302070
:1023100003EBC0035A607047A0010020024B18680D
:10232000C0F38020704700BF0010024010B51E4B64
:1023300018680B68072B144615D00A2B0AD893B1DE
:10234000013B092B0FD8DFE803F02D0E15150E16F3
:102350000E192127582B0ED008D84C2B0BD0502B00
:1023600009D0482B07D06FF0850006E05C2B02D027
:10237000602BF7E700202060002010BD00F0A2F8DD
:10238000142358430723B0FBF3F0F4E700F09AF866
:10239000142358434008EEE700F094F81423584300
:1023A0008008E8E70148E6E7300000200024F40058
:1023B00070B53F4C3F4E00F09BF800F0FFFDA36866
:1023C0003D4AC3F30313D35C20FA03F5B54202D8A8
:1023D0003A4800F0CBFFFFF7A1FF012807D02368A0
:1023E00043F480732360FFF799FF0128FBD1A368B2
:1023F00003F00C030C2B1AD1A36823F0F003A360A5
:10240000FFF78CFF012807D0236843F48073236013
:10241000FFF784FF0128FBD1A36823F0030343F0F7
:102420000103A360A36803F00C03042BFAD1236813
:1024300023F080732360E36823F0605323F40033B8
:1024400043F06053E360E36843F48033E360E368A0
:1024500023F4C003E360E36843F48013E36000F017
:1024600035F8236843F08073236023689B01FCD513
:10247000A36823F0F003A360A36843F00303A36001
:10248000A36803F00C030C2BFAD1B54202D90B4818
:1024900000F06CFF0A4B094A1A60A36823F4E0635A
:1024A000A360A36823F46053A360002070BD00BF45
:1024B00000100240FFB3C404D858000800B4C4049C
:1024C00030000020004870470024F400054B064906
:1024D000DA681140054A0A43DA60DA6842F080722D
:1024E000DA607047001002408C80FFF9021400028D
:1024F000064B9A6D42F080529A659B6D82B003F054
:1025000080530193019B02B0704700BF001002404E
:1025100008B5074802F0CDF938B10648FFF772FE5A
:102520000448FEF70FFA002008BD6FF01200FBE729
:10253000404B0008392500080A2838B5074D0446E5
:1025400004D1AB680D215B6828469847AB68034807
:102550005B68E1B29847204638BD00BF404B000899
:1025600038B5036904465860084D284602F0A1F9C1
:1025700040B16168AB680C311B682846984700EA97
:10258000E07038BD6FF01200FBE700BFB04A0008F2
:10259000F7B51746B7F5001F466802690C461D4699
:1025A00024D101F00302043292000F23934043EA46
:1025B0009103DAB23349023251F82220190C02EAAF
:1025C000134391FAA1F2B2FA82F2D340B2689A426E
:1025D00009D12046FFF74AFE2046FFF795FE00216D
:1025E0002046FFF74FFE002003B0F0BDB7F5800F87
:1025F00041D025492046FFF775FE00283ED1234AE9
:10260000B66892E803006B4683E8030020488268BE
:10261000194612689047C0B904F0030304339B00C5
:102620000F229A4042EA9402D3B29B0003F1804306
:1026300003F58033110C986820EA124091FAA1F258
:10264000B2FA82F2964006439E60B5F1806F0ED0DA
:10265000B5F1C06F0DD005F17E4359425941490093
:102660002046FFF70FFE2046FFF7F2FDBBE70121F2
:10267000F6E70321F4E76FF08500B5E76FF00F0090
:10268000B2E700BF0000014047460008984E00082E
:10269000B04A00082DE9F04301F1FF3C8DB0BCF1D8
:1026A000050FBDF850504768144698460FD9744B33
:1026B0000391029300231846CDE9003371490122AA
:1026C00002F005F86FF015000DB0BDE8F0833A6830
:1026D000B2F1804F03D0B4F5803F00F2CE806A4B58
:1026E00015F4807953F82C600ED0032902D9674B7A
:1026F0000391DEE7664B53F82C003CB9136A23EADA
:10270000000313620020DFE73046F6E7BB6863BBD7
:10271000013C136A05F0010530EA03034FEA450561
:1027200041D1B0F5807F00F09E8031D8102800F0B4
:102730009C8029D8012800F09A80042808BF012332
:1027400018BF08235348116AC05C0223834021EA62
:10275000030385401D43504B156253F82C303868F5
:10276000414698473B68DC62CCE7102B02D108F168
:10277000FF38CDE723F04001202901D0402B7CD148
:102780004FEA58086408C4E7402808BF0323D7E786
:10279000B0F5805F6DD0B0F5803F6CD0B0F5806F44
:1027A00008BF0523CCE704A802F078F8602304935F
:1027B0000123B9F1000F16D006930995CDF81C80BE
:1027C000386804AA314600F07FFC78B1334B02939D
:1027D00000231846CDE900332A49012201F077FF92
:1027E0006FF0040070E705930895E7E73A6813680F
:1027F00043F080031360B6F5807F3A682BD01FD872
:10280000102E2AD018D8012E04D0042E08BF012083
:1028100018BF0820224B195C224B1832185C5558FF
:10282000082383402B4353503B68DC623A6853696A
:1028300043F00103536165E7402E08BF0320E7E73B
:10284000B6F5805F0BD0B6F5803F0AD0B6F5806F45
:1028500008BF0520DCE70420DCE70220DAE70620D9
:10286000D8E70720D6E704236CE702236AE70023B2
:1028700068E7062366E7072364E76FF0850023E730
:1028800014570008704E0008FC4F00082957000834
:10289000F04F000822580008D84F00085057000891
:1028A000345800082B5800082DE9F04307694568A3
:1028B0008BB0404E304601F0FCFF034668B93E4AFB
:1028C0003E490090CDE90102012201F000FF6FF0C6
:1028D000120420460BB0BDE8F083D6F8089005F14D
:1028E0000C08D9F80030414630469847041E0BDAF0
:1028F000334B039402930023CDE900332F49012287
:10290000184601F0E4FEE4E7D9F80C308BB105AAD3
:10291000414630469847041E0DDB059B3B606869C5
:1029200005AA002101F09BFF041E07DA254B039442
:10293000E0E76FF05704244B0394DBE7059B00228C
:102940001979186800F0F4FA041EEFDB05A801F00D
:102950009CFF6B68ADF814300024AB680693CDE99A
:10296000074405A9286800F077FB60B1174B009475
:10297000CDE90143204623461049012201F0A7FE7C
:102980006FF00404A5E72B68114A934207D002F5C3
:10299000A052934203D002F58062934203D15A6C55
:1029A00042F400425A642A68136843F0010313603A
:1029B00000248EE7B04A00087A570008704E0008DD
:1029C00099570008DB570008B9570008F957000865
:1029D000002C014030B50369456858688368DB689E
:1029E0000C4687B069685BB90E4B02930023CDE9B2
:1029F00000330D490122184601F0A3FE07B030BD97
:102A000005AA98470028EFDB2A68136823F40043DF
:102A10001360059B2A6803EB5403B3FBF4F39BB2EA
:102A2000D360EBE73D580008804E00082DE9F041E7
:102A3000D0F81080446807465448C8F8040086B0AF
:102A400001F037FF034668B9514A52490090CDE979
:102A50000102012201F075FE6FF01206304606B049
:102A6000BDE8F081D8F80400616883681B68984766
:102A7000064650B1484B02930023CDE90033454947
:102A80000122184601F05DFEE8E7014605AAA069AB
:102A900001F0E5FE002801DA0646DFE7059B324635
:102AA0001979186800F044FA0028F5DB22681368E9
:102AB00023F001031360226852E8003F43F00C0347
:102AC00042E80035002DF7D12369022B53D0012BAA
:102AD00056D0002B43D1002221680B6823F080538D
:102AE00023F4B0532A4313430B604B6823F4405341
:102AF0004B60237B2BB17B681A68936843F4407367
:102B00009360D8F800103846FFF764FF237D23B1A7
:102B10002268936843F008039360637D23B12268C1
:102B2000536843F400435360A37D23B12268536884
:102B300043F480335360E37D23B12268536843F448
:102B4000003353602268136843F001031360236865
:102B5000DA699102FCD5DA695202FCD57EE703936B
:102B60000E4B0C490095CDE9015302222B46284615
:102B700001F0E7FDAFE74FF480524FF48065ABE71B
:102B80004FF480524FF4C065A6E700BFB04A00087A
:102B90007A570008804E00086B5800088B580008D0
:102BA0002DE9F0410B7945680669012B0C4600F0D0
:102BB00085809A1E51425141890294F805C094F8CB
:102BC0000680BCF1020F96BF624A4FF4005732F8FC
:102BD0001C70E279B8F1020F73D0B8F1040F00F065
:102BE0009980002B7AD1012A2CF0020C40F0A380AE
:102BF000BCF1000F00F08E80B8F1010F40F28A8026
:102C00004FF4407ED5F800C06AB1DFF84C81C4456E
:102C100007D0A8F57448C44503D008F57058C445DA
:102C200078D1012A76D1DCF8002022F00102CCF81C
:102C300000204268D2F800C0DCF8002002F4C06234
:102C400091421FBFDCF8002022F4C0620A43CCF896
:102C50000020426811684A6802F4405297421FBF40
:102C60004A6822F440523A434A60426811680A684E
:102C700002F010229A421FBF0A6822F0102213436A
:102C80000B6043681A68936803F440739E451FBF46
:102C9000936823F4407343EA0E039360216833681A
:102CA000994203D0FFF796FE236833602A681368C1
:102CB00043F0010313600020BDE8F0814FF4C061D0
:102CC0007BE70BBB012A2CF0020C2FD1BCF1000FCB
:102CD00020D04FF4407E4FF0805393E7033B012A0E
:102CE000DBB20CD1012B15D94FF4407E1CF0FD0F47
:102CF00010D0B8F1010F0DD94FF4805382E7012BAA
:102D000008D94FF0000EF1E7033B012ADBB204D0F3
:102D1000012B19D86FF08500CEE7012BFAD91CF0F2
:102D2000FD0FF7D04FF4407E00236BE7BCF1000F9E
:102D3000F0D09E46CFE7BCF1000FEBD0B8F1010F09
:102D4000E8D99E4673465DE71CF0FD0FE2D04FF0D8
:102D5000000EF7E7F45000080038014010B54FF0BE
:102D6000E0239A6919699869094B11F4803F094970
:102D700001D1824206D21A680C6822441A604FF0D0
:102D8000E02212691B680A681344181A10BD00BFBC
:102D90006402002070020020094B102283F82320D7
:102DA000084B41F63F721A60074B002018604FF045
:102DB000E0235A6198611A6942F007021A6170476C
:102DC00000ED00E0700200206402002008B5FFF76B
:102DD000C5FF0C4B0C4A18681168084410600022AB
:102DE0001A600A4A13684FF4FA51C01AB0FBF1F0A6
:102DF00001FB0033136001F093F8BDE80840FEF7D3
:102E000017BE00BF640200206C0200206802002090
:102E10002DE9F041324E002953D0421C0AD14FF027
:102E2000E022136923F0010313614FF07F43336005
:102E3000BDE8F0813468012849DDB0F5036F49DC55
:102E400000F1FF384FF01003EFF3118583F3128880
:102E5000BFF36F8FFFF782FF4FF0E02321499F6997
:102E60000B681844204B00221A60204B1B68C21AC2
:102E700033D44FF4FA5C0CFB082202F5F9521B1A0A
:102E80001F32B2FBFCF20CFB0233B3F5806F24D986
:102E9000174A934228BF13464FF0E02233609669E9
:102EA000B742A7EB060703F1FF3338BF3F19536161
:102EB000384400239361086085F31188BFF36F8F56
:102EC000B6E7431C3468B6D14FF40360B8E74FF05F
:102ED0000008B7E74FF40368B4E74FF48063DBE71B
:102EE000700200206C0200206402002068020020B2
:102EF00000DCFF0010B54FF01003EFF3118483F3F3
:102F00001288BFF36F8FFFF729FF074B074A1B6833
:102F100012689B1A034484F31188BFF36F8F4FF438
:102F2000FA50B3FBF0F010BD6C02002068020020E4
:102F30002DE9F047204F044600EBC1060025B442BE
:102F400001D1002014E02268D10602F01F0911D43B
:102F5000656845F02005C2F3471AC2F343220A2AE6
:102F600027D857F82280B8F1000F11D16FF0120066
:102F7000BDE8F087B9F1100F08D0B9F1110FEAD10F
:102F800065682B05E7D545F01005E4E73025E2E755
:102F9000404601F08EFC0028E8D04B462A460AF055
:102FA0000F01404601F066FB002804F10804C6DA70
:102FB000DEE76FF01500DBE76C500008224B9A68E3
:102FC000D96812F00C0205D00C2A15D101F00301CA
:102FD000012918D119681D48090755BFD3F8941065
:102FE0001968C1F30321C1F3031150F8210012B194
:102FF0000C2A09D000207047042A22D0082A14483D
:1030000018BF002070470020DA6802F00302022A8D
:1030100015D00F49032A08BF0846D968DA68C2F3F9
:1030200006224243D868C0F34160C1F30211013067
:1030300001314000B2FBF1F2B2FBF0F070470548FD
:10304000EBE70448704700BF0010024098500008AA
:1030500000127A000024F400194A0368904202D05A
:10306000B0F1804F1AD14A6823F070031343CA6845
:1030700023F44073134303608B68C3620B8883623D
:103080000F4B984207D003F5A053984203D003F5A5
:10309000806398420ED10B6903630BE0094A9042AA
:1030A000E5D002F580629042E1D003608B68C36294
:1030B0000B888362436943F001034361002070473A
:1030C000002C014000400140B1F5805F30B500F0B8
:1030D000F08009D8102975D0B1F5807F00F0AE805E
:1030E000012935D0012030BDB1F5803F00F00E81BF
:1030F000B1F5801FF6D1036A23F480130362036ADB
:10310000416D146821F0807121F4E04141EA04240A
:10311000116923F4001343EA0153516823F4801327
:1031200043EA01539049884207D001F5A0518842F3
:1031300003D001F58061884206D14168956921F488
:10314000802141EA852141604465D268C26536E04C
:10315000036A23F001030362036A41688469156806
:1031600024F4803424F073042C43156923F0020303
:103170002B43556823F001032B437B4DA84207D016
:1031800005F5A055A84203D005F58065A84212D1E7
:10319000556923F0080343EA8503956823F0040387
:1031A00043EA8503956921F480712943D56921F4A7
:1031B000007141EA450141608461D2684263036263
:1031C000002090E7036A23F010030362036A41685A
:1031D0008469156824F0807424F4E64444EA0524E4
:1031E000156923F0200343EA0513556823F0100303
:1031F00043EA05135C4DA84207D005F5A055A84247
:1032000003D005F58065A84213D1556923F08003EA
:1032100043EA8513956823F0400343EA85139569D3
:1032200021F4806141EA8501D56921F4006141EA18
:10323000C50141608461D2688263C0E7036A23F4F8
:1032400080730362036A4168C469156824F480349A
:1032500024F073042C43156923F4007343EA052317
:10326000556823F4807343EA05233F4DA84207D0F5
:1032700005F5A055A84203D005F58065A84213D1F5
:10328000556923F4006343EA8523956823F480633A
:1032900043EA8523956921F4805141EA0511D569F6
:1032A00021F4005141EA45114160C461D268C26312
:1032B00085E7036A23F480530362036A4468C169A3
:1032C000156821F0807121F4E64141EA0521156974
:1032D00023F4005343EA0533556823F4805343EA4B
:1032E0000533214DA84207D005F5A055A84203D0CB
:1032F00005F58065A84204D1956924F4804444EA28
:1033000085144460C161D268026458E7036A23F4FB
:1033100080330362036A416D146821F4803121F027
:1033200070010C43116923F4003343EA01435168EF
:1033300023F4803343EA01430B49884207D001F567
:10334000A051884203D001F58061884206D14168CE
:10335000956921F4803141EA052141604465D268D4
:10336000816D82652BE700BF002C01401F4B421E80
:103370009A4201D9012070471D4B1B6803F4C063BA
:10338000B3F5007F0FD11B4B98421AD81A4B9842C5
:1033900027D81A4B984226D8194B984294BF00233D
:1033A0000123002011E0174B98420CD8A3F5F40339
:1033B000A3F59053984214D8134B984213D8134B4B
:1033C000EBE70423EDE70023012011490A6822F00E
:1033D00007021A430A600A6802F007029342C9D141
:1033E00070470323DDE70223DBE700BFFFB3C4041C
:1033F000007000400090D003006CDC020048E8013F
:103400000024F40080BA8C01001BB700808D5B00A3
:10341000002002400F4B70B553F82040013053F8A4
:103420002060A64200D870BDD4E9003528469847F0
:103430006DB138B10028B8BF4042EB68FF28A8BF83
:10344000FF201870EA68537843F001035370083482
:10345000E7E700BFC85000081FB50446FDF7CCFEE3
:10346000064B029300231846CDE90033044901229C
:1034700001F029FA204601F036FA00BFE8580008AA
:10348000684E00082DE9F041064686B00F464FF021
:103490001003EFF3118883F31288BFF36F8F00F0EE
:1034A000F3FB042E96BF224B224B53F826302249C1
:1034B00003960024CDE90434204B0094CDE9014368
:1034C000054623460122204601F0FDF96FB1FB6954
:1034D000C3F308034BB11A4B17490094CDE90143DC
:1034E00001222346204601F0EEF92DB1284601F0D5
:1034F00007FA08B1037803B91248134B029300236B
:10350000CDE90350CDE90033184601220A4901F004
:10351000DAF939463046FFF79FFF88F31188BFF389
:103520006F8F284606B0BDE8F041FEF777BD00BFBB
:10353000E0500008F7580008684E00080D590008D0
:1035400035590008055900085659000808B50A4BB6
:10355000012202201A70FFF75DFF00F055FD0320E5
:10356000FFF758FF00F0ECF8FCF7CCFF034A137BA1
:1035700023F00103137308BDAC020020E00000201B
:1035800008B50348034A0021121A01F0B5F908BD35
:1035900060000020B002002070B5002386B0012238
:1035A000CDE90423134E144D01930F22CDE90232CD
:1035B0001249182303FB005506EBC01604464FF4CE
:1035C000C07000FB04110E4B00954FF4A072304602
:1035D00000F084F8737B0B4AEE6023F004037373EE
:1035E0004FF4046304FB033313442C756B6006B083
:1035F00070BD00BF6000002074020020000B00209E
:1036000005490008C002002080B52D4BA6B083F309
:1036100008882C4D2C4E6B692C4F43F4007300240A
:103620006B61F02385F82230EC772C766C76AC76E3
:1036300085F820406B6A43F4E0236B62FEF7BAFC26
:10364000FEF794F84FF0FF33AB62EB62FEF7AAFD92
:10365000FEF7FAFCFDF7BCFD40F20113ADF8243093
:1036600006ABB360CDE91F44229401F021F9204656
:10367000FFF7D0FE0120164DFFF7CCFE00F05EFAFA
:10368000144BB5610593012313490094CDE903431D
:103690004FF480623B46CDE90144284600F01EF815
:1036A0006A7B064622F0040228466A7301F06AF932
:1036B0002046FFF771FF3A4631462846FEF78EF95D
:1036C000000B002000ED00E0740200204D350008E2
:1036D000E0000020B8590008800C00202DE9FF41CF
:1036E0000E9E0673042646730D9E867300F15805E0
:1036F0000F46D61DC0E916550C9A002526F0070680
:103700004037C0E90655C0E919768560C573C566BE
:1037100006F1400802920B9A019288440A9A00929C
:1037200042460446FEF728F9044B65659B6803B1E1
:103730001B6F2367404604B0BDE8F081740200208F
:10374000F0B5224C224D87B02646AE4204F130043B
:103750000BD300F0C3F91D4C1E4F0A26AC4220D3F8
:1037600007B0BDE8F04000F0CDB954F8043C059333
:1037700054F8103C049354F8143C039354F8183C48
:10378000029354F81C3C019354F8203C009354E9F4
:103790000A2354E90C01FFF7A1FF54F8303C5E65A1
:1037A000D2E7626A531C09D022EAE27282FB062346
:1037B00052EA0301206803D100F040F93034CDE72C
:1037C0003946183000F02EFBF8E700BF5C000020FF
:1037D0005C0000204149000838B5074D2C6854B101
:1037E000FFF788FB054B04441C6128680021BDE8F5
:1037F000384001F003B938BDA00200207402002057
:1038000038B50D4D2B4653F81C4F9C4200D004B9DF
:10381000EC68AB6838B95A7BD20604D1A26912B9F8
:10382000DA897F2A05D89C4202D02046FFF7D4FFD0
:103830002346AB6138BD00BF7402002070B590F91B
:103840000D20437B002A014604DA03F07F03437313
:1038500001F064F84B7B154A63F07F0310464B730D
:1038600050F81C3F146A834208BF002323B9C1E902
:103870000004216011620CE091F90E5093F90E6082
:10388000B5420ED0AE420CDD5868C1E9003001608F
:1038900059609068431A5842BDE870405841FFF79C
:1038A000AFBF9C42E3D01B68E0E700BF740200207A
:1038B00070B490F90D30427B002B29DBD30627D161
:1038C00083692BBB134962F07F0242730A4652F8A8
:1038D0001C4F944218BF23460C6A23B9C0E9002448
:1038E000206008620CE090F90E5093F90E60B5422A
:1038F0000AD0AE4208DD5A68C0E900321060586054
:1039000070BC0020FFF77CBFA342E7D01B68E4E750
:1039100070BC70477402002008B590F90D20437BFD
:10392000002A014604DA03F07F03437300F0F6FF38
:10393000044B9868431A58425841BDE80840FFF7C5
:103940005FBF00BF7402002010B54FF01003EFF30B
:10395000118483F31288BFF36F8F0A23002800FBC2
:1039600003F302DD022BB8BF0223074A00201061D7
:1039700006480360064B90681960FFF72DFF84F33B
:103980001188BFF36F8F10BD74020020A0020020C9
:103990009C02002038B54FF01003EFF3118583F33C
:1039A0001288BFF36F8F174B174A9C6811688C42BF
:1039B00007D12046FFF710FF85F31188BFF36F8F03
:1039C00038BD00211160114A1268C2B1E2897F2A14
:1039D00015D8627BD20612D10D4A94F90E101268E6
:1039E00091420CDB0B4A944209D01A69824203DCF3
:1039F0002046FFF723FFDCE7121A1A61DCE70022FA
:103A0000FBE700BF7402002098020020A002002003
:103A10009C0200206000002049B9EFF3058030B916
:103A2000054B9A699B689A4201D0FDF751BF81F31B
:103A30001188BFF36F8F70477402002010B54FF0EC
:103A40001002EFF3118482F31288BFF36F8F427B71
:103A5000510704D484F31188BFF36F8F10BD22F097
:103A600004024273FFF724FF21460248BDE81040DC
:103A7000FFF7D2BFAD02002070B50446183000F049
:103A8000A7FF4FF01003EFF3118683F31288BFF303
:103A90006F8F94F90D20637B002A05DA03F07F0312
:103AA0006373204600F03AFF0B4D637BA86843F038
:103AB00010036373031B58425841FFF7A1FE86F3BE
:103AC0001188BFF36F8FAB68A34203D1BDE870408C
:103AD00000F074BF70BD00BF740200204FF01003EF
:103AE000EFF3118183F31288BFF36F8F044B9A6851
:103AF000D37B013BD37381F31188BFF36F8F704782
:103B00007402002010B54FF01003EFF3118483F31B
:103B10001288BFF36F8F084B9A68D37B0133D3733E
:103B20000020FFF76DFE84F31188BFF36F8FBDE8AF
:103B3000104000F043BF00BF74020020044B00217E
:103B400003F11C02C3E907220846FFF7FDBE00BFD0
:103B500074020020F8B54FF01003EFF3118583F3E2
:103B60001288BFF36F8F19498868437B03F07F0386
:103B7000437300F0D3FE8B685A7B084662F07F02E5
:103B80005A7350F81C2F0C6A824208BF002222B9D7
:103B9000C3E9000423600B620CE093F90E6092F914
:103BA0000E70BE420ED0B7420CDD5168C3E9002151
:103BB0000B6053600120FFF723FE2846BDE8F84064
:103BC000FDF786BEA242E3D01268E0E7740200204F
:103BD00050EA01032DE9F04105460E4603D1FFF7F7
:103BE000B9FF00202CE0831C71F1FF332ADB00F0C9
:103BF00021FF44194FF01003EFF3118883F312886B
:103C0000BFF36F8F114F124BB8681860FFF784FE37
:103C1000B86810492A463346183000F003F9BA68EC
:103C2000537B43F0100353734046FDF751FE00F001
:103C300001FF201A63EB0303012873F10003D0DBBB
:103C4000BDE8F0816FF00104241AD3E7740200206C
:103C50009802002041490008B1F1FF3F08BFB0F1D0
:103C6000FF3F08B506D1074B9868FFF705FF4FF0F7
:103C7000FF3008BDFFF7ACFF0A220023C117FCF795
:103C800087FAF6E774020020014B9868704700BF7E
:103C9000740200202DE9F04104464FF01003EFF3C9
:103CA000118683F31288BFF36F8F037BD9070BD57F
:103CB00086F31188BFF36F8F404080F311884FF077
:103CC000040002DFBDE8F081437B1A0704D586F3C8
:103CD0001188BFF36F8FF5E723F0200242F008014F
:103CE000D20920D14173A36813B1204600F01EFE13
:103CF00004F1180000F06CFE04F158074FF00008C2
:103D0000A56DBD4200D0B5B90120FFF779FD104B7C
:103D10009B68A342DBD1EFF30583002BD7D130465C
:103D2000FDF7D6FDD3E703F05F0343F008034373C9
:103D300000F0F4FDD7E7284600F0F8FD05F1180083
:103D400000F046FEC5F878802846FFF7B1FDD7E7BA
:103D50007402002008B50648064A0749121A00F006
:103D6000CDFDBDE80840054A0549064800F0C6BD3E
:103D7000000000205C000020085A0008000000003D
:103D8000085A000800000020034B1B680BB9FFF71E
:103D9000B1B80020704700BFA402002010B5114B3D
:103DA0001C689C420AD1FFF7EFFF6FF000400E4BFA
:103DB0001B6913B19842A8BF184610BDFFF7E4FF76
:103DC000002CF2D0D4E904321B1A62EBE072B3F19A
:103DD000004F72F10001E8DA002AACBF184600205B
:103DE000E5E700BF340000207402002030B570B158
:103DF0000B4B5B6898420AD0036843B1D3E90421B6
:103E0000D0E90445121941EB0501C3E90421D0E9C9
:103E1000003213605A600023C0E9003330BD00BF98
:103E200034000020B3F1FF3F08BFB2F1FF3FF8B507
:103E300004461D46164661D081604FF01003EFF333
:103E4000118783F31288BFF36F8F013275F1FF334F
:103E500024DA3049D1E900206FF001039B1A4FF0BA
:103E6000FF3262EB00009E1B60EB0500012E70F13B
:103E7000000301DA01260020C4E90460264ED6F8CA
:103E800000C07568B44508BF4FF0000CBCF1000FCE
:103E90000DD1C4E900652C6074601CE0FFF774FF6D
:103EA000013645F10005361845EBE070E4E7DCE942
:103EB0000420D4E90431934271EB000E1FDAD21AC8
:103EC000DCF8043060EB0100CCE90420C4E900C355
:103ED0001C60CCF804403368B3420BD09C4209D13B
:103EE000FFF75CFF18B10D4B1B69834202D0002124
:103EF000FEF78EFF87F31188BFF36F8FF8BD9B1A13
:103F000061EB0001AC45C4E90431C2D0DCF800C06B
:103F1000BCE700BF600100203400002074020020D4
:103F20002DE9F8430446FFF735FD4FF01003EFF39A
:103F3000118683F31288BFF36F8F234FDFF88C80D5
:103F4000D8F80000224A3C604045D2E9003E4FEAE2
:103F5000E4710BD050B1D0E9045CAC4271EB0C09B8
:103F600016DA2D1B6CEB010CC0E9045CE3184EEB78
:103F700001010024C2E900313C60FFF70FFF214638
:103F8000FEF746FF86F31188BFF36F8FBDE8F88315
:103F9000EB184EEBE571C2E9003100220023C0E9C5
:103FA0000423FFF723FF86F31188BFF36F8F836825
:103FB00098474FF01003EFF3118683F31288BFF395
:103FC0006F8F3C68641BBBE7A40200203400002014
:103FD0006001002010B54FF01003EFF3118483F35C
:103FE0001288BFF36F8FFFF7CFFE064A0346D2E970
:103FF0000001181841EBE37184F31188BFF36F8F50
:1040000010BD00BF60010020024A0349034800F0D0
:1040100037B800BFE2510008C0590008E159000854
:1040200070472DE9F04707460E4690461D460BB3F4
:10403000AC78EA7893F801A01B78144404EB83046D
:104040002C444FF00009D14508D36A6805F10803F4
:1040500041463846B446BDE8F047604714F8013B96
:1040600045F82340204600F03BF90130044409F1B3
:104070000109E8E76FF01500BDE8F0870020704700
:104080000FB407B504A951F8040B019100F080F8B2
:1040900003B05DF804EB04B07047044608B5084669
:1040A00011461A46A047FFF7EFFDFDF7B7FF2DE9D0
:1040B000F84F9A46D3786F2B80460F461546A3F1EA
:1040C000410B29D024D8582B0CBF10260A26DDF826
:1040D00028903246002340463946FCF759F8092A11
:1040E000D4B21ED83034B045E4B277F1000709F8F5
:1040F000014D01D3D14511D82B789B0605D5082E4B
:1041000015D1AB7843F00803AB704846BDE8F88F93
:1041100003F0F703702BD7E70826D8E780460F4651
:10412000D7E7BBF1190F94BF37345734DBE7102EB4
:10413000EBD1AB7843F01003E6E72DE9F0410746F9
:10414000884615461E461446B44205D30EB1601B80
:1041500008E02378002BFAD014F8010B4146B84749
:104160000028F1DABDE8F081704700207047002098
:10417000704708B500F062FC0A220023FCF708F83B
:1041800008BD08B500210846FCF7AAFF002008BDBD
:104190001FB50023CDE90201CDE900331A461946C7
:1041A0001846FDF7A7F805B05DF804FB704700203E
:1041B000704770B50E4615461946044618B9BDE855
:1041C0007040FDF73BB83BB1C2F349231030C2F356
:1041D000CB42184400F094F8C4E900562046BDE8EC
:1041E0007040FDF749B807B5D1E900328DF80700F6
:1041F000526801210DF107009847002003B05DF8D7
:1042000004FB0A2838B504460D4602D10D20FFF7FD
:10421000EAFF29462046FFF7E6FF002038BDF8B543
:1042200006460D4614461F46214628463A46B047E4
:10423000241A0544F8D1F8BD13B500240094FCF706
:1042400087FB02B010BD10B5426881680446D2E910
:1042500000230068FFF7E3FF636800221A6010BDC7
:1042600070477FB50BAB059303930A9B0293002322
:10427000CDE9003301221846FDF73CF807B05DF8A0
:1042800004FB01460068FDF785BA00210120FDF717
:1042900081BA08B5FDF7F4FABDE80840FDF7C8BBE0
:1042A0007FB50BAB059303930A9B02930023CDE9E3
:1042B000003301221846FDF71DF807B05DF804FB36
:1042C0007FB50BAB059303930A9B02930023CDE9C3
:1042D000003301221846FDF70DF807B05DF804FB26
:1042E000034600201A5C02B970470130FAE7034622
:1042F00000201A5C0AB1884200D170470130F8E70B
:1043000010B5431E0A44914200D110BD11F8014B73
:1043100003F8014FF7E7C9B202440346934200D1C4
:10432000704703F8011BF9E74FF0FF307047002298
:1043300008B511460620FDF78BFA0022114607202A
:10434000FDF786FA002211460820FDF781FA0022C7
:1043500011460920FDF77CFA002211460A20FDF7DC
:1043600077FA002211461720FDF772FA0022114653
:104370002820FDF76DFA002008BD026910210A20EF
:10438000FDF746BF02690A210520FDF741BF02691A
:1043900005210420FDF73CBF026904210320FDF73D
:1043A00037BF026903210220FDF732BF02690221F3
:1043B0000120FDF72DBF026901210020FDF728BF74
:1043C0000B68A3F14802182A9FBF03F1804303F54D
:1043D000043349681A689DBF0A4300201A606FF0D1
:1043E000850070470B68A3F14802182A9FBF03F1AC
:1043F000804303F5043349681A689DBF8A4300204F
:104400001A606FF0850070470B68012B02D0063BE5
:10441000042B0FD84968CBB203F1804303F5043372
:10442000C1F302421868C1F304218A4002431A60B2
:10443000002070476FF08500704743685B681B6918
:104440000B600020704743685B68586942400A402F
:1044500042405A610020704743685B6800209961C0
:10446000704743685B6800209962704743685A68E8
:1044700053694B4053610020704710B50369986839
:1044800048B1884213D1DC6808689860A14200D125
:10449000D860002008607AB9002010BD814206D1A2
:1044A00008682060D8688142F3D1DC60F1E70446F7
:1044B00000680028F2D13AB19A680A60DA68996017
:1044C000002AE9D1D960E7E76FF01500E5E7F0B51C
:1044D00044680120676888401E46C2F3801327EABB
:1044E00000078B403B43636090FAA0F7B7FA87F769
:1044F000D4F808C04FF0030E7F000EFA07F72CEA3D
:10450000070C90FAA0F7B7FA87F7C2F3C1137F0040
:10451000BB4043EA0C03A36090FAA0F3B3FA83F321
:10452000E7685B000EFA03F327EA030790FAA0F3AB
:10453000B3FA83F302F030055B00C2F341229A40E4
:104540003A43202DE26016D107292BDC90FAA0F324
:10455000226A2BB3B3FA83F39B000F2101FA03F312
:1045600022EA030290FAA0F3B3FA83F39B0006FA5F
:1045700003F31343236290FAA0F3B3FA83F32268A0
:1045800090FAA0F05B000321B0FA80F02D0901FA47
:1045900003F3400022EA030385401D432560F0BD7C
:1045A0002B46D9E7030A616A93FAA3F282B1B2FA01
:1045B00082F292000F2793FAA3F3B3FA83F307FA78
:1045C00002F29B0021EA02029E4016436662D2E795
:1045D0002A46EEE713469A0310B518D59C070FD567
:1045E0005A072DD55022DC060CD542F4007213F484
:1045F000002F446818D0646801238B40A3610DE04C
:104600001022F0E79C06F2D542F48062EFE7DC036B
:1046100011D5DA0611D4C3F340139A02406800237F
:10462000FFF755FF002010BD5B03F7D56468012339
:104630008B40A362F2E73022F0E74FF40072EDE71F
:104640006FF08500EFE770B50B46896821B1012551
:104650005E680C68854001B970BD8A682A4002D046
:104660004B68304698471CB1236821461C46F2E748
:104670002346FAE7F8B51F46044640680E4615463D
:10468000FFF725FF112F08D1012303FA06F663680F
:104690005B682A054CBF9E619E620020F8BD4163A5
:1046A000704781637047C163704701647047836DD1
:1046B00081657047C16570474168036949681B6837
:1046C00000200131B3FBF1F3C2E9003070477FB540
:1046D0000BAB059303930A9B02930023CDE90033B0
:1046E00001221846FCF706FE07B05DF804FB43689C
:1046F0001A68D069D169C907D169C0F3C00048BF41
:1047000040F002008907D16948BF40F00400C905A4
:1047100042BF4FF4807140F008001162C20742BFEF
:104720001A6808211162810742BF1A6801211162CB
:10473000420742BF1A68022111621B6804221A62F2
:1047400070477FB50BAB059303930A9B029300233D
:10475000CDE900331846FCF7CDFD07B05DF804FB4A
:1047600010B540680268D3691B06FCD54FF01002F3
:10477000EFF3118382F31288BFF36F8F0268D4695D
:10478000240604D483F31188BFF36F8FEAE7118501
:1047900083F31188BFF36F8F10BD43681A68D06927
:1047A000000744BF082010621B68DA69920643BF05
:1047B0009B8C0B7000204FF0FF30704703691B6823
:1047C0000B6043681B681B6803F4C063B3F5806F1C
:1047D00035D0A3F5C06CDCF1000343EB0C030B7187
:1047E00043681B685B6803F44053B3F5805F28D0CF
:1047F000B3F5405F27D0002B0CBF012303234B717F
:1048000043681B681A681B6802F01022B2F5805FCB
:1048100003F4C06319D0B2F1805F1BD1002B14BF29
:10482000012302238B7143681B689B6803F4407368
:10483000A3F5407253425341CB71002070470223CD
:10484000CDE70023DBE70223D9E7002B14BF0323C6
:104850000423E7E7002B14BF02230323E2E770B52C
:1048600003686FF06046136005790468354404EB13
:10487000C504A34202D96FF0010070BD5C798C427F
:1048800001D00833EFE70020F7E700234FF0FF32B5
:10489000C0E9022303804360036170470023C0E93D
:1048A0000033C0E90233C0E90433C0E9063370477E
:1048B000704738B1C3681888C0F30800A0F580734A
:1048C0005842584170477FB50BAB059303930A9B41
:1048D00002930023CDE9003301221846FCF70AFDBC
:1048E00007B05DF804FB4FF01002EFF3118382F381
:1048F0001288BFF36F8FFEE7FFF70DBDFFF700BD16
:104900000020704708B54FF01002EFF3118382F3D7
:104910001288BFF36F8FFCF72FFFF4E7D0E9003266
:1049200013605A600023C0E90033704708B5FFF7F1
:10493000F5FF437B23F0020343730023836008BD2C
:1049400010B501464FF01003EFF3118483F3128882
:10495000BFF36F8F10F80B3C13F0280F0DD151F8F7
:10496000103C18380BB1FFF7E1FF11F80B3C23F0B6
:10497000140301F80B3CFEF79BFF84F31188BFF38F
:104980006F8F10BD10B54FF01003EFF3118483F358
:104990001288BFF36F8FFEF78BFF84F31188BFF38C
:1049A0006F8F10BD034620B9EFF305820AB9FCF7FB
:1049B0008FBF83F31188BFF36F8F70474FF01003E1
:1049C000EFF3118083F31288BFF36F8FFFF7EABF15
:1049D00010B54FF01002EFF3118482F31288BFF389
:1049E0006F8F03683BB1FFF701FA002084F3118851
:1049F000BFF36F8F10BD6FF01500F7E770B5044679
:104A00000D464FF01003EFF3118683F31288BFF3C6
:104A10006F8FFFF7C3F9012807DDA04205DBA04235
:104A20002946A8BF2046FEF7F3F986F31188BFF3A5
:104A30006F8F70BD08B5FFF7CDFA08BDFFF7CABA92
:084A400084B7FF7F01000000B4
:104A4800B5100008000000006B41000800000000DD
:104A5800B1230008B04A00082F430008C84A0008DC
:104A680061250008E04A000861250008F84A0008A6
:104A780061250008104B000861250008284B000834
:104A88002D2A0008404B00081125000800000000EE
:104A9800992D000800000000834100080000000074
:084AA800A9280008584B000882
:104AB000CF560008000000000C000020400000203D
:104AC000000000003E4E0008A15600080000000053
:104AD000000000003C000020A0010020384E00082B
:104AE000DC5600082C4F00087C4F000844000020D2
:104AF00020020020304E0008EA560008404F00080F
:104B00007C4F00084800002030020020284E00089A
:104B1000F8560008544F00087C4F00084C00002055
:104B200040020020204E000806570008684F000889
:104B30007C4F00085000002050020020184E000852
:104B4000BD580008145000085850000858000020B4
:104B500028000020104E000814580008A04F00083C
:104B6000D04F00085400002060020020084E0008CA
:104B7000000000008B420008000000008B4200088B
:104B8000000000008B420008000000008B4200087B
:104B9000000000008B420008000000008B4200086B
:104BA000C84A0008B7430008C84A0008AD430008D7
:104BB000C84A0008A3430008C84A000899430008EF
:104BC000C84A00088F430008000000008B4200081C
:104BD000000000008B420008000000008B4200082B
:104BE000000000008B420008000000008B4200081B
:104BF000000000008B420008000000008B4200080B
:104C0000000000008B420008000000008B420008FA
:104C1000000000008B420008000000008B420008EA
:104C2000000000008B420008C84A000885430008C5
:104C3000000000008B420008000000008B420008CA
:104C4000000000008B420008000000008B420008BA
:104C5000000000008B420008000000008B420008AA
:104C6000000000008B420008000000008B4200089A
:104C7000000000008B420008000000008B4200088A
:104C8000000000008B420008000000008B4200087A
:104C9000000000008B420008000000008B4200086A
:104CA000000000008B420008000000008B4200085A
:104CB000C84A00087B430008000000008B4200083F
:104CC000000000008B420008000000008B4200083A
:104CD000000000008B420008000000008B4200082A
:104CE000000000008B420008000000008B4200081A
:104CF000000000008B420008000000008B4200080A
:104D0000000000008B420008000000008B420008F9
:104D1000000000008B420008000000008B420008E9
:104D2000000000008B420008000000008B420008D9
:104D3000000000008B420008000000008B420008C9
:104D4000000000008B420008000000008B420008B9
:104D5000000000008B420008000000008B420008A9
:104D6000000000008B420008000000008B42000899
:104D7000000000008B420008000000008B42000889
:104D8000000000008B420008000000008B42000879
:104D9000000000008B420008000000008B42000869
:104DA000000000008B420008000000008B42000859
:104DB000000000008B420008000000008B42000849
:104DC000000000008B420008000000008B42000839
:104DD000000000008B420008000000008B42000829
:104DE000000000008B420008000000008B42000819
:104DF000000000008B420008000000008B42000809
:084E0000000000008B420008D5
:104E0800010000800080FF7F010000800080FF7F9C
:104E1800010000800080FF7F010000800080FF7F8C
:104E2800010000800080FF7F010000800080FF7F7C
:104E380000800080FF7F00800080030004000500E0
:084E4800060007000800FF7FCF
:104E5000DC5100080300000063520008030000005A
:104E60004556000803000000BD590008030000007B
:104E70001858000804000000D85100080300000082
:084E8000CD58000803000000FA
:104E8800D44E00087C0100205252000801000000A6
:104E980060000000010000006D160008000000001E
:104EA8000000000000000000325200083A520008DA
:104EB800000000000000000000000000425200084E
:104EC800465200084A5200084E52000825170008AA
:104ED80000000000111700086142000800000000EF
:104EE8000517000800000000491700088401002089
:104EF800A9020020010000000000002000000000BE
:104F080000000B0602000000144F00080000000813
:104F18009256000822000207000000209A56000856
:104F28001E000B11FFFF0000001C004807000000D6
:104F38004C00000080000000FFFF0000000800484F
:104F4800020000004C00000004000000FFFF000009
:104F580000040048010000004C00000002000000AE
:104F6800FFFF000000000048000000004C000000A7
:104F780001000000D54500083B44000847440008EC
:104F880059440008634400086D440008912500084E
:104F98007B44000800000000000000400000000002
:104FA800000000005800000001000000B84F000891
:104FB800C04F000801000000C84F000801000000B1
:104FC800610200000000000095260008B9460008AC
:104FD8009F460008A3460008A7460008AB460008FD
:104FE800AF460008B5460008040000004000000075
:104FF8000004000001000000100000000001000093
:1050080000100000000001000000100000440040F3
:1050180030500008010000000000000000000000FF
:10502800000000003850000858000000000002008E
:10503800405000080100000048500008020000002D
:105048004700000000020000E3010000000000002B
:105058009B47000861470008EF460008A12B00089D
:10506800BD470008284B0008104B0008F84A000804
:105078000000000000000000000000000000000028
:10508800E04A0008000000000000000000000000E6
:10509800A0860100400D0300801A060000350C00B0
:1050A80040420F0080841E0000093D0000127A0073
:1050B8000024F40000366E010048E801006CDC02B0
:1050C800484A0008984A0008A04A0008B04A000860
:1050D800B04A0008F5FFFFFF6E5900087C59000828
:1050E800905900089F590008AB59000800100000AB
:1050F80000304572726F723A2050574D20646576C1
:10510800696365202573206973206E6F742072654A
:105118006164790A0043616C6962726174696E67DF
:1051280020666F72206368616E6E656C2025642E40
:105138002E2E0A004572726F723A2050574D206425
:10514800657669636520646F6573206E6F7420737C
:105158007570706F7274206120706572696F642059
:105168006174206C6561737420256C750A00446F46
:105178006E652063616C6962726174696E673B2059
:105188006D6178696D756D2F6D696E696D756D20CE
:10519800706572696F64732025752F256C7520758D
:1051A8007365630A004572726F722025643A20663F
:1051B80061696C656420746F207365742070756C08
:1051C80073652077696474680A00286E696C290021
:1051D800736F63006C6F67000D0A001B5B306D0016
:1051E800257320005B2530386C755D20005B253009
:1051F80032753A253032753A253032752E253033DE
:10520800752C253033755D20002573003C25733ED1
:10521800200025732F0025733A200025303278208E
:1052280000202020007C002563001B5B313B3331CC
:105238006D001B5B313B33336D0065727200777212
:105248006E00696E6600646267006C6F675F62611A
:10525800636B656E645F75617274006C6F675F7510
:105268006172740072302F61313A20203078253015
:105278003878202072312F61323A2020307825305A
:105288003878202072322F61333A20203078253048
:1052980038780072332F61343A202030782530383E
:1052A80078207231322F69703A20203078253038D2
:1052B80078207231342F6C723A20203078253038BB
:1052C800780020787073723A20203078253038784A
:1052D800004661756C74696E6720696E73747275C7
:1052E8006374696F6E2061646472657373202872D9
:1052F80031352F7063293A20307825303878002AE4
:105308002A2A2A2A20425553204641554C54202AFD
:105318002A2A2A2A002020537461636B696E672049
:105328006572726F72002020556E737461636B69C9
:105338006E67206572726F72002020507265636913
:105348007365206461746120627573206572726F81
:105358007200202042464152204164647265737392
:105368003A2030782578002020496D70726563698D
:105378007365206461746120627573206572726F51
:1053880072002020496E737472756374696F6E20A1
:10539800627573206572726F72002020466C6F61AF
:1053A80074696E672D706F696E74206C617A7920EC
:1053B800737461746520707265736572766174695F
:1053C8006F6E206572726F72002A2A2A2A2A205567
:1053D80053414745204641554C54202A2A2A2A2A17
:1053E8000020204469766973696F6E206279207A9B
:1053F80065726F002020556E616C69676E65642068
:105408006D656D6F72792061636365737300202029
:105418004E6F20636F70726F636573736F7220696C
:105428006E737472756374696F6E73002020496CB3
:105438006C6567616C206C6F6164206F66204558ED
:10544800435F52455455524E20696E746F20504345
:10545800002020496C6C6567616C20757365206F4E
:1054680066207468652045505352002020417474AA
:10547800656D707420746F20657865637574652038
:10548800756E646566696E656420696E737472759D
:105498006374696F6E002A2A2A2A2A204D505520E3
:1054A8004641554C54202A2A2A2A2A00202053747F
:1054B80061636B696E67206572726F722028636F13
:1054C8006E746578742061726561206D69676874AF
:1054D800206265206E6F742076616C6964290020F3
:1054E8002044617461204163636573732056696F5A
:1054F8006C6174696F6E0020204D4D464152204109
:105508006464726573733A203078257800202049E6
:105518006E737472756374696F6E2041636365732B
:10552800732056696F6C6174696F6E00526573659C
:105538007276656420457863657074696F6E20289B
:105548000053707572696F757320696E7465727235
:1055580075707420284952512000535053454C20EF
:10556800696E20746872656164206D6F646520647B
:105578006F6573206E6F7420696E6469636174650A
:1055880020505350002A2A2A2A2A204841524420CF
:105598004641554C54202A2A2A2A2A00202042759E
:1055A80073206661756C74206F6E20766563746F06
:1055B80072207461626C6520726561640020204409
:1055C80065627567206576656E7400202046617592
:1055D8006C7420657363616C6174696F6E202873E5
:1055E80065652062656C6F772900415243485F45C5
:1055F8005843455054207769746820726561736F09
:105608006E2025780A002A2A2A2A2A2044656275EB
:1056180067206D6F6E69746F72206578636570744A
:10562800696F6E202A2A2A2A2A002A2A2A2A2A2048
:10563800257320256429202A2A2A2A2A006D7075B4
:1056480000506172746974696F6E2025753A207311
:10565800616E69747920636865636B206661696C43
:1056680065642E004661696C656420746F20616C06
:105678006C6F63617465206E6577204D505520729C
:105688006567696F6E2025750A00464C4153485F6F
:1056980030005352414D5F3000696E746572727507
:1056A80070742D636F6E74726F6C6C6572403430F9
:1056B80030313034303000060708090A1717171739
:1056C800172828282828287263634034303032315C
:1056D800303030006770696F4034383030316330B3
:1056E80030006770696F40343830303038303000FF
:1056F8006770696F4034383030303430300067704C
:10570800696F40343830303030303000496E76615F
:105718006C6964206368616E6E656C202825642955
:10572800004368616E6E656C202564206861732093
:105738004E4F20636F6D706C656D656E7461727924
:10574800206F757470757400436F756C64206E6F8C
:105758007420696E697469616C697A652074696D11
:105768006572206368616E6E656C206F7574707504
:105778007400636C6F636B20636F6E74726F6C2060
:10578800646576696365206E6F74207265616479FB
:1057980000436F756C64206E6F7420696E6974695C
:1057A800616C697A6520636C6F636B2028256429B6
:1057B80000436F756C64206E6F74206F627461694A
:1057C8006E2074696D657220636C6F636B20282589
:1057D80064290050574D2070696E6374726C207391
:1057E80065747570206661696C6564202825642974
:1057F80000436F756C64206E6F7420696E697469FC
:10580800616C697A652074696D65720070776D00E6
:1058180070776D5F73746D33320000020406080AF6
:105828000C10140000080000000800080000000028
:105838000404043C3C4661696C65642063616C6CDB
:1058480020636C6F636B5F636F6E74726F6C5F67FE
:1058580065745F726174652870636C6B656E5B302C
:105868005D2900436F756C64206E6F7420656E61EE
:10587800626C6520284C50295541525420636C6F46
:10588800636B00496E76616C69642070617269743B
:10589800792073657474696E6720272564272E4400
:1058A800656661756C74696E6720746F20276E6F0A
:1058B8006E65272E0073657269616C403430303034
:1058C8003434303000756172745F73746D33320034
:1058D8000000000000000000010203040607080998
:1058E80048616C74696E672073797374656D0055CF
:1058F8006E6B6E6F776E206572726F7200756E6B6D
:105908006E6F776E003E3E3E205A455048595220F1
:10591800464154414C204552524F522025643A206A
:105928002573206F6E20435055202564004661750D
:105938006C7420647572696E6720696E7465727222
:105948007570742068616E646C696E670A004375CF
:105958007272656E74207468726561643A2025708D
:105968002028257329004350552065786365707495
:10597800696F6E00556E68616E646C656420696E4F
:105988007465727275707400537461636B206F76FE
:105998006572666C6F77004B65726E656C206F6F11
:1059A8007073004B65726E656C2070616E69630080
:1059B8006D61696E006F73007A65706879722D7613
:1059C800332E312E302D343931382D673032616223
:1059D8006565653636623731002A2A2A20426F6F9C
:1059E80074696E67205A6570687972204F53206217
:1059F80075696C64202573202573202A2A2A0A00D9
:105A08007D4000086F41000829430008C143000891
:105A1800E5430008000000002D23000800000000F6
:105A2800000000000944000800C201000000000056
:0C5A380000093D00340000203400002074
:105A44000000000000000000000000000000000052
:105A54000000000000000000000000000000000042
:0400000508001FF1DF
:00000001FF
